{
  "contractName": "FoundationOwnable",
  "abi": [
    {
      "inputs": [],
      "payable": false,
      "stateMutability": "nonpayable",
      "type": "constructor"
    },
    {
      "constant": true,
      "inputs": [],
      "name": "isFoundation",
      "outputs": [
        {
          "internalType": "bool",
          "name": "",
          "type": "bool"
        }
      ],
      "payable": false,
      "stateMutability": "view",
      "type": "function"
    },
    {
      "constant": false,
      "inputs": [
        {
          "internalType": "address",
          "name": "_address",
          "type": "address"
        }
      ],
      "name": "setFoundationAddress",
      "outputs": [],
      "payable": false,
      "stateMutability": "nonpayable",
      "type": "function"
    }
  ],
  "bytecode": "0x608060405234801561001057600080fd5b50600080546001600160a01b03191633179055610126806100326000396000f3fe6080604052348015600f57600080fd5b506004361060325760003560e01c8063d392a7d5146037578063f41377ca146051575b600080fd5b603d6076565b604080519115158252519081900360200190f35b607460048036036020811015606557600080fd5b50356001600160a01b03166087565b005b6000546001600160a01b0316331490565b608d6076565b60cf576040805162461bcd60e51b815260206004820152600f60248201526e37b7363c903337bab73230ba34b7b760891b604482015290519081900360640190fd5b600080546001600160a01b0319166001600160a01b039290921691909117905556fea265627a7a723158208134ae20283d936eeebbbd7921a8dbe393a5bcf468c6c1a66647f9bf9e9953b264736f6c634300050b0032",
  "source": "pragma solidity ^0.5.11;\n\ncontract FoundationOwnable {\n  address foundationAddress;\n\n  constructor() public {\n    foundationAddress = msg.sender;\n  }\n\n  // ---------\n  // Modifiers\n  // ---------\n\n  modifier onlyFoundation() {\n    require(isFoundation(), \"only foundation\");\n    _;\n  }\n\n  // ---------\n  // Functions\n  // ---------\n\n  function isFoundation() public view returns (bool) {\n    return msg.sender == foundationAddress;\n  }\n\n  function setFoundationAddress(address _address) public onlyFoundation {\n    foundationAddress = _address;\n  }\n\n}\n",
  "sourcePath": "/Users/aitjcize/Work/tangerine-network/node-staker/contracts/FoundationOwnable.sol",
  "compiler": {
    "name": "solc",
    "version": "0.5.11+commit.c082d0b4.Emscripten.clang"
  },
  "schemaVersion": "3.0.11",
  "updatedAt": "2019-09-29T03:09:06.435Z",
  "devdoc": {
    "methods": {}
  },
  "userdoc": {
    "methods": {}
  }
}