{
  "contractName": "GovernanceMock",
  "abi": [
    {
      "constant": true,
      "inputs": [],
      "name": "staked",
      "outputs": [
        {
          "internalType": "uint256",
          "name": "",
          "type": "uint256"
        }
      ],
      "payable": false,
      "stateMutability": "view",
      "type": "function"
    },
    {
      "constant": true,
      "inputs": [
        {
          "internalType": "uint256",
          "name": "",
          "type": "uint256"
        }
      ],
      "name": "nodes",
      "outputs": [
        {
          "internalType": "address",
          "name": "owner",
          "type": "address"
        },
        {
          "internalType": "bytes",
          "name": "publicKey",
          "type": "bytes"
        },
        {
          "internalType": "uint256",
          "name": "staked",
          "type": "uint256"
        },
        {
          "internalType": "uint256",
          "name": "fined",
          "type": "uint256"
        },
        {
          "internalType": "string",
          "name": "name",
          "type": "string"
        },
        {
          "internalType": "string",
          "name": "email",
          "type": "string"
        },
        {
          "internalType": "string",
          "name": "location",
          "type": "string"
        },
        {
          "internalType": "string",
          "name": "url",
          "type": "string"
        },
        {
          "internalType": "uint256",
          "name": "unstaked",
          "type": "uint256"
        },
        {
          "internalType": "uint256",
          "name": "unstakedAt",
          "type": "uint256"
        }
      ],
      "payable": false,
      "stateMutability": "view",
      "type": "function"
    },
    {
      "constant": true,
      "inputs": [],
      "name": "minStake",
      "outputs": [
        {
          "internalType": "uint256",
          "name": "",
          "type": "uint256"
        }
      ],
      "payable": false,
      "stateMutability": "view",
      "type": "function"
    },
    {
      "constant": true,
      "inputs": [
        {
          "internalType": "address",
          "name": "",
          "type": "address"
        }
      ],
      "name": "nodesOffsetByAddress",
      "outputs": [
        {
          "internalType": "int256",
          "name": "",
          "type": "int256"
        }
      ],
      "payable": false,
      "stateMutability": "view",
      "type": "function"
    },
    {
      "constant": true,
      "inputs": [],
      "name": "unstaked",
      "outputs": [
        {
          "internalType": "uint256",
          "name": "",
          "type": "uint256"
        }
      ],
      "payable": false,
      "stateMutability": "view",
      "type": "function"
    },
    {
      "constant": true,
      "inputs": [
        {
          "internalType": "address",
          "name": "",
          "type": "address"
        }
      ],
      "name": "registered",
      "outputs": [
        {
          "internalType": "bool",
          "name": "",
          "type": "bool"
        }
      ],
      "payable": false,
      "stateMutability": "view",
      "type": "function"
    },
    {
      "anonymous": false,
      "inputs": [
        {
          "indexed": false,
          "internalType": "address",
          "name": "owner",
          "type": "address"
        },
        {
          "indexed": false,
          "internalType": "bytes",
          "name": "publicKey",
          "type": "bytes"
        },
        {
          "indexed": false,
          "internalType": "string",
          "name": "name",
          "type": "string"
        },
        {
          "indexed": false,
          "internalType": "string",
          "name": "email",
          "type": "string"
        },
        {
          "indexed": false,
          "internalType": "string",
          "name": "location",
          "type": "string"
        },
        {
          "indexed": false,
          "internalType": "string",
          "name": "url",
          "type": "string"
        },
        {
          "indexed": false,
          "internalType": "uint256",
          "name": "value",
          "type": "uint256"
        }
      ],
      "name": "Register",
      "type": "event"
    },
    {
      "anonymous": false,
      "inputs": [
        {
          "indexed": false,
          "internalType": "address",
          "name": "owner",
          "type": "address"
        },
        {
          "indexed": false,
          "internalType": "uint256",
          "name": "amount",
          "type": "uint256"
        }
      ],
      "name": "Staked",
      "type": "event"
    },
    {
      "anonymous": false,
      "inputs": [
        {
          "indexed": false,
          "internalType": "address",
          "name": "owner",
          "type": "address"
        },
        {
          "indexed": false,
          "internalType": "uint256",
          "name": "amount",
          "type": "uint256"
        }
      ],
      "name": "Unstaked",
      "type": "event"
    },
    {
      "anonymous": false,
      "inputs": [
        {
          "indexed": false,
          "internalType": "address",
          "name": "owner",
          "type": "address"
        },
        {
          "indexed": false,
          "internalType": "uint256",
          "name": "amount",
          "type": "uint256"
        }
      ],
      "name": "Withdrawn",
      "type": "event"
    },
    {
      "anonymous": false,
      "inputs": [
        {
          "indexed": true,
          "internalType": "address",
          "name": "NodeAddress",
          "type": "address"
        },
        {
          "indexed": true,
          "internalType": "address",
          "name": "NewOwnerAddress",
          "type": "address"
        }
      ],
      "name": "NodeOwnershipTransfered",
      "type": "event"
    },
    {
      "constant": false,
      "inputs": [
        {
          "internalType": "bytes",
          "name": "publicKey",
          "type": "bytes"
        },
        {
          "internalType": "string",
          "name": "name",
          "type": "string"
        },
        {
          "internalType": "string",
          "name": "email",
          "type": "string"
        },
        {
          "internalType": "string",
          "name": "location",
          "type": "string"
        },
        {
          "internalType": "string",
          "name": "url",
          "type": "string"
        }
      ],
      "name": "register",
      "outputs": [],
      "payable": true,
      "stateMutability": "payable",
      "type": "function"
    },
    {
      "constant": false,
      "inputs": [],
      "name": "stake",
      "outputs": [],
      "payable": true,
      "stateMutability": "payable",
      "type": "function"
    },
    {
      "constant": false,
      "inputs": [
        {
          "internalType": "uint256",
          "name": "amount",
          "type": "uint256"
        }
      ],
      "name": "unstake",
      "outputs": [],
      "payable": false,
      "stateMutability": "nonpayable",
      "type": "function"
    },
    {
      "constant": false,
      "inputs": [],
      "name": "withdraw",
      "outputs": [],
      "payable": false,
      "stateMutability": "nonpayable",
      "type": "function"
    },
    {
      "constant": true,
      "inputs": [],
      "name": "withdrawable",
      "outputs": [
        {
          "internalType": "bool",
          "name": "",
          "type": "bool"
        }
      ],
      "payable": false,
      "stateMutability": "view",
      "type": "function"
    },
    {
      "constant": false,
      "inputs": [
        {
          "internalType": "bytes",
          "name": "key",
          "type": "bytes"
        }
      ],
      "name": "replaceNodePublicKey",
      "outputs": [],
      "payable": false,
      "stateMutability": "nonpayable",
      "type": "function"
    },
    {
      "constant": false,
      "inputs": [
        {
          "internalType": "address",
          "name": "NewOwner",
          "type": "address"
        }
      ],
      "name": "transferNodeOwnership",
      "outputs": [],
      "payable": false,
      "stateMutability": "nonpayable",
      "type": "function"
    }
  ],
  "bytecode": "0x608060405260006003556000600455670de0b6b3a764000060055534801561002657600080fd5b50611448806100366000396000f3fe6080604052600436106100c25760003560e01c80633f007c201161007f578063850311231161005957806385031123146104c8578063acbc2e8a146104fb578063b2dd5c0714610510578063d242f4cc14610543576100c2565b80633f007c20146103bb5780634264ecf91461046c578063501883011461049f576100c2565b80630b76619b146100c75780631c53c280146100ee5780632e17de781461035d578063375b3c0a146103895780633a4b66f11461039e5780633ccfd60b146103a6575b600080fd5b3480156100d357600080fd5b506100dc6107fb565b60408051918252519081900360200190f35b3480156100fa57600080fd5b506101186004803603602081101561011157600080fd5b5035610801565b604051808b6001600160a01b03166001600160a01b03168152602001806020018a81526020018981526020018060200180602001806020018060200188815260200187815260200186810386528f818151815260200191508051906020019080838360005b8381101561019557818101518382015260200161017d565b50505050905090810190601f1680156101c25780820380516001836020036101000a031916815260200191505b5086810385528c5181528c516020918201918e019080838360005b838110156101f55781810151838201526020016101dd565b50505050905090810190601f1680156102225780820380516001836020036101000a031916815260200191505b5086810384528b5181528b516020918201918d019080838360005b8381101561025557818101518382015260200161023d565b50505050905090810190601f1680156102825780820380516001836020036101000a031916815260200191505b5086810383528a5181528a516020918201918c019080838360005b838110156102b557818101518382015260200161029d565b50505050905090810190601f1680156102e25780820380516001836020036101000a031916815260200191505b5086810382528951815289516020918201918b019080838360005b838110156103155781810151838201526020016102fd565b50505050905090810190601f1680156103425780820380516001836020036101000a031916815260200191505b509f5050505050505050505050505050505060405180910390f35b34801561036957600080fd5b506103876004803603602081101561038057600080fd5b5035610b2b565b005b34801561039557600080fd5b506100dc610c05565b610387610c0b565b3480156103b257600080fd5b50610387610c92565b3480156103c757600080fd5b50610387600480360360208110156103de57600080fd5b810190602081018135600160201b8111156103f857600080fd5b82018360208201111561040a57600080fd5b803590602001918460018302840111600160201b8311171561042b57600080fd5b91908080601f016020809104026020016040519081016040528093929190818152602001838380828437600092019190915250929550610d91945050505050565b34801561047857600080fd5b506103876004803603602081101561048f57600080fd5b50356001600160a01b0316610de0565b3480156104ab57600080fd5b506104b4610e19565b604080519115158252519081900360200190f35b3480156104d457600080fd5b506100dc600480360360208110156104eb57600080fd5b50356001600160a01b0316610e59565b34801561050757600080fd5b506100dc610e6b565b34801561051c57600080fd5b506104b46004803603602081101561053357600080fd5b50356001600160a01b0316610e71565b610387600480360360a081101561055957600080fd5b810190602081018135600160201b81111561057357600080fd5b82018360208201111561058557600080fd5b803590602001918460018302840111600160201b831117156105a657600080fd5b91908080601f0160208091040260200160405190810160405280939291908181526020018383808284376000920191909152509295949360208101935035915050600160201b8111156105f857600080fd5b82018360208201111561060a57600080fd5b803590602001918460018302840111600160201b8311171561062b57600080fd5b91908080601f0160208091040260200160405190810160405280939291908181526020018383808284376000920191909152509295949360208101935035915050600160201b81111561067d57600080fd5b82018360208201111561068f57600080fd5b803590602001918460018302840111600160201b831117156106b057600080fd5b91908080601f0160208091040260200160405190810160405280939291908181526020018383808284376000920191909152509295949360208101935035915050600160201b81111561070257600080fd5b82018360208201111561071457600080fd5b803590602001918460018302840111600160201b8311171561073557600080fd5b91908080601f0160208091040260200160405190810160405280939291908181526020018383808284376000920191909152509295949360208101935035915050600160201b81111561078757600080fd5b82018360208201111561079957600080fd5b803590602001918460018302840111600160201b831117156107ba57600080fd5b91908080601f016020809104026020016040519081016040528093929190818152602001838380828437600092019190915250929550610e86945050505050565b60035481565b6000818154811061080e57fe5b6000918252602091829020600a9091020180546001808301805460408051601f60026000199685161561010002969096019093169490940491820187900487028401870190528083526001600160a01b0390931695509293909291908301828280156108bb5780601f10610890576101008083540402835291602001916108bb565b820191906000526020600020905b81548152906001019060200180831161089e57829003601f168201915b505050505090806002015490806003015490806004018054600181600116156101000203166002900480601f0160208091040260200160405190810160405280929190818152602001828054600181600116156101000203166002900480156109655780601f1061093a57610100808354040283529160200191610965565b820191906000526020600020905b81548152906001019060200180831161094857829003601f168201915b5050505060058301805460408051602060026001851615610100026000190190941693909304601f81018490048402820184019092528181529495949350908301828280156109f55780601f106109ca576101008083540402835291602001916109f5565b820191906000526020600020905b8154815290600101906020018083116109d857829003601f168201915b5050505060068301805460408051602060026001851615610100026000190190941693909304601f8101849004840282018401909252818152949594935090830182828015610a855780601f10610a5a57610100808354040283529160200191610a85565b820191906000526020600020905b815481529060010190602001808311610a6857829003601f168201915b5050505060078301805460408051602060026001851615610100026000190190941693909304601f8101849004840282018401909252818152949594935090830182828015610b155780601f10610aea57610100808354040283529160200191610b15565b820191906000526020600020905b815481529060010190602001808311610af857829003601f168201915b505050505090806008015490806009015490508a565b6003805482900390556004805482019055336000908152600160205260408120548154909190819083908110610b5d57fe5b90600052602060002090600a020190508060020154831115610bb05760405162461bcd60e51b81526004018080602001828103825260218152602001806113f36021913960400191505060405180910390fd5b600281018054849003905560088101805484019055604080513381526020810185905281517f0f5bb82176feb1b5e747e28471aa92156a04d9f3ab9f45f28e2d704232b93f75929181900390910190a1505050565b60055481565b6003805434019055336000908152600160205260408120548154909190819083908110610c3457fe5b60009182526020918290206002600a90920201908101805434908101909155604080513381529384019190915280519193507f9e71bc8eea02a63969f509818f2dafb9254532904319f9dbda79b67bd34a5f3d928290030190a15050565b336000908152600160205260408120548154909190819083908110610cb357fe5b60009182526020909120600a9091020160088101549091503031811115610d13576040805162461bcd60e51b815260206004820152600f60248201526e696e76616c69642062616c616e636560881b604482015290519081900360640190fd5b600480548290039055600060088301819055604051339183156108fc02918491818181858888f19350505050158015610d50573d6000803e3d6000fd5b50604080513381526020810183905281517f7084f5476618d8e60b11ef0d7d3f06914655adb8793e28ff7f018d4c76d505d5929181900390910190a1505050565b336000908152600160205260408120548154909190819083908110610db257fe5b90600052602060002090600a0201905082816001019080519060200190610dda9291906112fe565b50505050565b6040516001600160a01b0382169033907f63616cf4caeee172ed91719b5e000da424d56855ee726aedb0a1d74fb3f1db2a90600090a350565b3360009081526001602052604081205481548290819083908110610e3957fe5b60009182526020909120600a909102016008015430311015925050505b90565b60016020526000908152604090205481565b60045481565b60026020526000908152604090205460ff1681565b3360009081526002602052604090205460ff1615610eeb576040805162461bcd60e51b815260206004820152601c60248201527f73656e6465722061646472657373206973207265676973746572656400000000604482015290519081900360640190fd5b336000908152600260205260409020805460ff191660011790556003805434019055610f1561137c565b5060408051610140810182523380825260208083018981523484860152600060608501819052608085018a905260a0850189905260c0850188905260e08501879052610100850181905261012085018190528054938152600180845295812084905594830180865594805283517f290decd9548b62a8d60345a988386fc84ba6bc95484008f6362f93160ef3e563600a90940293840180546001600160a01b0319166001600160a01b039092169190911781559051805194959486949293611001937f290decd9548b62a8d60345a988386fc84ba6bc95484008f6362f93160ef3e564019201906112fe565b506040820151600282015560608201516003820155608082015180516110319160048401916020909101906112fe565b5060a0820151805161104d9160058401916020909101906112fe565b5060c082015180516110699160068401916020909101906112fe565b5060e082015180516110859160078401916020909101906112fe565b50610100820151816008015561012082015181600901555050507f471c608285a25d40223ae624c34aa7bf38348e6cc163d3fbeca102527a2a9ee73387878787873460405180886001600160a01b03166001600160a01b03168152602001806020018060200180602001806020018060200187815260200186810386528c818151815260200191508051906020019080838360005b8381101561113257818101518382015260200161111a565b50505050905090810190601f16801561115f5780820380516001836020036101000a031916815260200191505b5086810385528b5181528b516020918201918d019080838360005b8381101561119257818101518382015260200161117a565b50505050905090810190601f1680156111bf5780820380516001836020036101000a031916815260200191505b5086810384528a5181528a516020918201918c019080838360005b838110156111f25781810151838201526020016111da565b50505050905090810190601f16801561121f5780820380516001836020036101000a031916815260200191505b5086810383528951815289516020918201918b019080838360005b8381101561125257818101518382015260200161123a565b50505050905090810190601f16801561127f5780820380516001836020036101000a031916815260200191505b5086810382528851815288516020918201918a019080838360005b838110156112b257818101518382015260200161129a565b50505050905090810190601f1680156112df5780820380516001836020036101000a031916815260200191505b509c5050505050505050505050505060405180910390a1505050505050565b828054600181600116156101000203166002900490600052602060002090601f016020900481019282601f1061133f57805160ff191683800117855561136c565b8280016001018555821561136c579182015b8281111561136c578251825591602001919060010190611351565b506113789291506113d8565b5090565b60405180610140016040528060006001600160a01b031681526020016060815260200160008152602001600081526020016060815260200160608152602001606081526020016060815260200160008152602001600081525090565b610e5691905b8082111561137857600081556001016113de56fe756e7374616b6520616d6f756e74206c6172676572207468616e207374616b6564a265627a7a723158208650d3b6bbc231c83e41894a417fed89b5bc04027331a124ac72bff73ff0e9a564736f6c634300050b0032",
  "source": "pragma solidity ^0.5.11;\n\n// This contract mocks the Tangerine governance contract ONLY FOR TESTING PURPOSE,\n// and its behavior is not exaclty same as the Tangerine governance contract.\ncontract GovernanceMock {\n\n  struct Node {\n    address owner;\n    bytes publicKey;\n    uint256 staked;\n    uint256 fined;\n    string name;\n    string email;\n    string location;\n    string url;\n    uint256 unstaked;\n    uint256 unstakedAt;\n  }\n\n  Node[] public nodes;\n  mapping(address => int256) public nodesOffsetByAddress;\n\n  mapping(address => bool) public registered;\n  uint256 public staked = 0;\n  uint256 public unstaked = 0;\n  uint256 public minStake = 1000000000000000000;\n\n  event Register(\n    address owner,\n    bytes publicKey,\n    string name,\n    string email,\n    string location,\n    string url,\n    uint256 value\n  );\n  event Staked(address owner, uint256 amount);\n  event Unstaked(address owner, uint256 amount);\n  event Withdrawn(address owner, uint256 amount);\n  event NodeOwnershipTransfered(address indexed NodeAddress, address indexed NewOwnerAddress);\n\n  function register(\n    bytes memory publicKey,\n    string memory name,\n    string memory email,\n    string memory location,\n    string memory url\n  ) public payable {\n    require(!registered[msg.sender], \"sender address is registered\");\n    registered[msg.sender] = true;\n    staked += msg.value;\n\n    Node memory node = Node(\n      msg.sender,\n      publicKey,\n      msg.value,\n      0,\n      name,\n      email,\n      location,\n      url,\n      0,\n      0\n    );\n\n    nodesOffsetByAddress[msg.sender] = int(nodes.length);\n    nodes.push(node);\n\n    emit Register(msg.sender, publicKey, name, email, location, url, msg.value);\n  }\n\n  function stake() public payable {\n    staked += msg.value;\n\n    uint256 offset = uint(nodesOffsetByAddress[msg.sender]);\n    Node storage node = nodes[offset];\n    node.staked += msg.value;\n\n    emit Staked(msg.sender, msg.value);\n  }\n\n  function unstake(uint256 amount) public {\n    staked -= amount;\n    unstaked += amount;\n\n    uint256 offset = uint(nodesOffsetByAddress[msg.sender]);\n    Node storage node = nodes[offset];\n    require(amount <= node.staked, \"unstake amount larger than staked\");\n    node.staked -= amount;\n    node.unstaked += amount;\n\n    emit Unstaked(msg.sender, amount);\n  }\n\n  function withdraw() public {\n    uint256 offset = uint(nodesOffsetByAddress[msg.sender]);\n    Node storage node = nodes[offset];\n    uint256 amount = node.unstaked;\n    require(amount >= 0, \"no unstaked balance\");\n    require(address(this).balance >= amount, \"invalid balance\");\n\n    unstaked -= amount;\n    node.unstaked = 0;\n    msg.sender.transfer(amount);\n    emit Withdrawn(msg.sender, amount);\n  }\n\n  function withdrawable() public view returns (bool) {\n    uint256 offset = uint(nodesOffsetByAddress[msg.sender]);\n    Node storage node = nodes[offset];\n    uint256 amount = node.unstaked;\n    return amount >= 0 && address(this).balance >= amount;\n  }\n\n  function replaceNodePublicKey(bytes memory key) public {\n    uint256 offset = uint(nodesOffsetByAddress[msg.sender]);\n    Node storage node = nodes[offset];\n    node.publicKey = key;\n  }\n\n  function transferNodeOwnership(address NewOwner) public {\n    emit NodeOwnershipTransfered(msg.sender, NewOwner);\n  }\n}\n",
  "sourcePath": "/Users/aitjcize/Work/tangerine-network/node-staker/contracts/test/GovernanceMock.sol",
  "compiler": {
    "name": "solc",
    "version": "0.5.11+commit.c082d0b4.Emscripten.clang"
  },
  "schemaVersion": "3.0.11",
  "updatedAt": "2019-09-29T03:09:06.443Z",
  "devdoc": {
    "methods": {}
  },
  "userdoc": {
    "methods": {}
  }
}