{
  "contractName": "Governance",
  "abi": [
    {
      "constant": true,
      "inputs": [
        {
          "internalType": "address",
          "name": "",
          "type": "address"
        }
      ],
      "name": "dkgSuccesses",
      "outputs": [
        {
          "internalType": "bool",
          "name": "",
          "type": "bool"
        }
      ],
      "payable": false,
      "stateMutability": "view",
      "type": "function"
    },
    {
      "constant": true,
      "inputs": [],
      "name": "notarySetSize",
      "outputs": [
        {
          "internalType": "uint256",
          "name": "",
          "type": "uint256"
        }
      ],
      "payable": false,
      "stateMutability": "view",
      "type": "function"
    },
    {
      "constant": true,
      "inputs": [],
      "name": "totalSupply",
      "outputs": [
        {
          "internalType": "uint256",
          "name": "",
          "type": "uint256"
        }
      ],
      "payable": false,
      "stateMutability": "view",
      "type": "function"
    },
    {
      "constant": true,
      "inputs": [
        {
          "internalType": "uint256",
          "name": "",
          "type": "uint256"
        }
      ],
      "name": "nodes",
      "outputs": [
        {
          "internalType": "address",
          "name": "owner",
          "type": "address"
        },
        {
          "internalType": "bytes",
          "name": "publicKey",
          "type": "bytes"
        },
        {
          "internalType": "uint256",
          "name": "staked",
          "type": "uint256"
        },
        {
          "internalType": "uint256",
          "name": "fined",
          "type": "uint256"
        },
        {
          "internalType": "string",
          "name": "name",
          "type": "string"
        },
        {
          "internalType": "string",
          "name": "email",
          "type": "string"
        },
        {
          "internalType": "string",
          "name": "location",
          "type": "string"
        },
        {
          "internalType": "string",
          "name": "url",
          "type": "string"
        },
        {
          "internalType": "uint256",
          "name": "unstaked",
          "type": "uint256"
        },
        {
          "internalType": "uint256",
          "name": "unstakedAt",
          "type": "uint256"
        }
      ],
      "payable": false,
      "stateMutability": "view",
      "type": "function"
    },
    {
      "constant": true,
      "inputs": [],
      "name": "notaryParamBeta",
      "outputs": [
        {
          "internalType": "uint256",
          "name": "",
          "type": "uint256"
        }
      ],
      "payable": false,
      "stateMutability": "view",
      "type": "function"
    },
    {
      "constant": true,
      "inputs": [],
      "name": "miningVelocity",
      "outputs": [
        {
          "internalType": "uint256",
          "name": "",
          "type": "uint256"
        }
      ],
      "payable": false,
      "stateMutability": "view",
      "type": "function"
    },
    {
      "constant": true,
      "inputs": [],
      "name": "lambdaBA",
      "outputs": [
        {
          "internalType": "uint256",
          "name": "",
          "type": "uint256"
        }
      ],
      "payable": false,
      "stateMutability": "view",
      "type": "function"
    },
    {
      "constant": true,
      "inputs": [],
      "name": "minStake",
      "outputs": [
        {
          "internalType": "uint256",
          "name": "",
          "type": "uint256"
        }
      ],
      "payable": false,
      "stateMutability": "view",
      "type": "function"
    },
    {
      "constant": true,
      "inputs": [],
      "name": "crsRound",
      "outputs": [
        {
          "internalType": "uint256",
          "name": "",
          "type": "uint256"
        }
      ],
      "payable": false,
      "stateMutability": "view",
      "type": "function"
    },
    {
      "constant": true,
      "inputs": [],
      "name": "notaryParamAlpha",
      "outputs": [
        {
          "internalType": "uint256",
          "name": "",
          "type": "uint256"
        }
      ],
      "payable": false,
      "stateMutability": "view",
      "type": "function"
    },
    {
      "constant": true,
      "inputs": [],
      "name": "dkgSuccessesCount",
      "outputs": [
        {
          "internalType": "uint256",
          "name": "",
          "type": "uint256"
        }
      ],
      "payable": false,
      "stateMutability": "view",
      "type": "function"
    },
    {
      "constant": true,
      "inputs": [
        {
          "internalType": "address",
          "name": "",
          "type": "address"
        }
      ],
      "name": "dkgFinalizeds",
      "outputs": [
        {
          "internalType": "bool",
          "name": "",
          "type": "bool"
        }
      ],
      "payable": false,
      "stateMutability": "view",
      "type": "function"
    },
    {
      "constant": true,
      "inputs": [],
      "name": "blockGasLimit",
      "outputs": [
        {
          "internalType": "uint256",
          "name": "",
          "type": "uint256"
        }
      ],
      "payable": false,
      "stateMutability": "view",
      "type": "function"
    },
    {
      "constant": true,
      "inputs": [],
      "name": "dkgRound",
      "outputs": [
        {
          "internalType": "uint256",
          "name": "",
          "type": "uint256"
        }
      ],
      "payable": false,
      "stateMutability": "view",
      "type": "function"
    },
    {
      "constant": true,
      "inputs": [],
      "name": "totalStaked",
      "outputs": [
        {
          "internalType": "uint256",
          "name": "",
          "type": "uint256"
        }
      ],
      "payable": false,
      "stateMutability": "view",
      "type": "function"
    },
    {
      "constant": true,
      "inputs": [
        {
          "internalType": "address",
          "name": "",
          "type": "address"
        }
      ],
      "name": "nodesOffsetByAddress",
      "outputs": [
        {
          "internalType": "int256",
          "name": "",
          "type": "int256"
        }
      ],
      "payable": false,
      "stateMutability": "view",
      "type": "function"
    },
    {
      "constant": true,
      "inputs": [],
      "name": "crs",
      "outputs": [
        {
          "internalType": "bytes32",
          "name": "",
          "type": "bytes32"
        }
      ],
      "payable": false,
      "stateMutability": "view",
      "type": "function"
    },
    {
      "constant": true,
      "inputs": [],
      "name": "roundLength",
      "outputs": [
        {
          "internalType": "uint256",
          "name": "",
          "type": "uint256"
        }
      ],
      "payable": false,
      "stateMutability": "view",
      "type": "function"
    },
    {
      "constant": true,
      "inputs": [],
      "name": "nextHalvingSupply",
      "outputs": [
        {
          "internalType": "uint256",
          "name": "",
          "type": "uint256"
        }
      ],
      "payable": false,
      "stateMutability": "view",
      "type": "function"
    },
    {
      "constant": true,
      "inputs": [
        {
          "internalType": "uint256",
          "name": "",
          "type": "uint256"
        }
      ],
      "name": "dkgComplaints",
      "outputs": [
        {
          "internalType": "bytes",
          "name": "",
          "type": "bytes"
        }
      ],
      "payable": false,
      "stateMutability": "view",
      "type": "function"
    },
    {
      "constant": true,
      "inputs": [],
      "name": "owner",
      "outputs": [
        {
          "internalType": "address",
          "name": "",
          "type": "address"
        }
      ],
      "payable": false,
      "stateMutability": "view",
      "type": "function"
    },
    {
      "constant": true,
      "inputs": [
        {
          "internalType": "bytes32",
          "name": "",
          "type": "bytes32"
        }
      ],
      "name": "dkgMasterPublicKeyOffset",
      "outputs": [
        {
          "internalType": "uint256",
          "name": "",
          "type": "uint256"
        }
      ],
      "payable": false,
      "stateMutability": "view",
      "type": "function"
    },
    {
      "constant": true,
      "inputs": [
        {
          "internalType": "address",
          "name": "",
          "type": "address"
        }
      ],
      "name": "dkgMPKReadys",
      "outputs": [
        {
          "internalType": "bool",
          "name": "",
          "type": "bool"
        }
      ],
      "payable": false,
      "stateMutability": "view",
      "type": "function"
    },
    {
      "constant": true,
      "inputs": [],
      "name": "lastHalvedAmount",
      "outputs": [
        {
          "internalType": "uint256",
          "name": "",
          "type": "uint256"
        }
      ],
      "payable": false,
      "stateMutability": "view",
      "type": "function"
    },
    {
      "constant": true,
      "inputs": [
        {
          "internalType": "bytes32",
          "name": "",
          "type": "bytes32"
        }
      ],
      "name": "finedRecords",
      "outputs": [
        {
          "internalType": "bool",
          "name": "",
          "type": "bool"
        }
      ],
      "payable": false,
      "stateMutability": "view",
      "type": "function"
    },
    {
      "constant": true,
      "inputs": [],
      "name": "lambdaDKG",
      "outputs": [
        {
          "internalType": "uint256",
          "name": "",
          "type": "uint256"
        }
      ],
      "payable": false,
      "stateMutability": "view",
      "type": "function"
    },
    {
      "constant": true,
      "inputs": [
        {
          "internalType": "uint256",
          "name": "",
          "type": "uint256"
        }
      ],
      "name": "fineValues",
      "outputs": [
        {
          "internalType": "uint256",
          "name": "",
          "type": "uint256"
        }
      ],
      "payable": false,
      "stateMutability": "view",
      "type": "function"
    },
    {
      "constant": true,
      "inputs": [
        {
          "internalType": "uint256",
          "name": "",
          "type": "uint256"
        }
      ],
      "name": "roundHeight",
      "outputs": [
        {
          "internalType": "uint256",
          "name": "",
          "type": "uint256"
        }
      ],
      "payable": false,
      "stateMutability": "view",
      "type": "function"
    },
    {
      "constant": true,
      "inputs": [],
      "name": "dkgMPKReadysCount",
      "outputs": [
        {
          "internalType": "uint256",
          "name": "",
          "type": "uint256"
        }
      ],
      "payable": false,
      "stateMutability": "view",
      "type": "function"
    },
    {
      "constant": true,
      "inputs": [],
      "name": "minBlockInterval",
      "outputs": [
        {
          "internalType": "uint256",
          "name": "",
          "type": "uint256"
        }
      ],
      "payable": false,
      "stateMutability": "view",
      "type": "function"
    },
    {
      "constant": true,
      "inputs": [
        {
          "internalType": "uint256",
          "name": "",
          "type": "uint256"
        }
      ],
      "name": "dkgMasterPublicKeys",
      "outputs": [
        {
          "internalType": "bytes",
          "name": "",
          "type": "bytes"
        }
      ],
      "payable": false,
      "stateMutability": "view",
      "type": "function"
    },
    {
      "constant": true,
      "inputs": [
        {
          "internalType": "address",
          "name": "",
          "type": "address"
        }
      ],
      "name": "lastProposedHeight",
      "outputs": [
        {
          "internalType": "uint256",
          "name": "",
          "type": "uint256"
        }
      ],
      "payable": false,
      "stateMutability": "view",
      "type": "function"
    },
    {
      "constant": true,
      "inputs": [],
      "name": "minGasPrice",
      "outputs": [
        {
          "internalType": "uint256",
          "name": "",
          "type": "uint256"
        }
      ],
      "payable": false,
      "stateMutability": "view",
      "type": "function"
    },
    {
      "constant": true,
      "inputs": [],
      "name": "dkgFinalizedsCount",
      "outputs": [
        {
          "internalType": "uint256",
          "name": "",
          "type": "uint256"
        }
      ],
      "payable": false,
      "stateMutability": "view",
      "type": "function"
    },
    {
      "constant": true,
      "inputs": [
        {
          "internalType": "bytes32",
          "name": "",
          "type": "bytes32"
        }
      ],
      "name": "dkgComplaintsProposed",
      "outputs": [
        {
          "internalType": "bool",
          "name": "",
          "type": "bool"
        }
      ],
      "payable": false,
      "stateMutability": "view",
      "type": "function"
    },
    {
      "constant": true,
      "inputs": [
        {
          "internalType": "address",
          "name": "",
          "type": "address"
        }
      ],
      "name": "nodesOffsetByNodeKeyAddress",
      "outputs": [
        {
          "internalType": "int256",
          "name": "",
          "type": "int256"
        }
      ],
      "payable": false,
      "stateMutability": "view",
      "type": "function"
    },
    {
      "constant": true,
      "inputs": [],
      "name": "lockupPeriod",
      "outputs": [
        {
          "internalType": "uint256",
          "name": "",
          "type": "uint256"
        }
      ],
      "payable": false,
      "stateMutability": "view",
      "type": "function"
    },
    {
      "constant": true,
      "inputs": [
        {
          "internalType": "uint256",
          "name": "",
          "type": "uint256"
        }
      ],
      "name": "dkgResetCount",
      "outputs": [
        {
          "internalType": "uint256",
          "name": "",
          "type": "uint256"
        }
      ],
      "payable": false,
      "stateMutability": "view",
      "type": "function"
    },
    {
      "anonymous": false,
      "inputs": [],
      "name": "ConfigurationChanged",
      "type": "event"
    },
    {
      "anonymous": false,
      "inputs": [
        {
          "indexed": true,
          "internalType": "uint256",
          "name": "Round",
          "type": "uint256"
        },
        {
          "indexed": false,
          "internalType": "bytes32",
          "name": "CRS",
          "type": "bytes32"
        }
      ],
      "name": "CRSProposed",
      "type": "event"
    },
    {
      "anonymous": false,
      "inputs": [
        {
          "indexed": true,
          "internalType": "address",
          "name": "NodeAddress",
          "type": "address"
        },
        {
          "indexed": true,
          "internalType": "address",
          "name": "NewOwnerAddress",
          "type": "address"
        }
      ],
      "name": "NodeOwnershipTransfered",
      "type": "event"
    },
    {
      "anonymous": false,
      "inputs": [
        {
          "indexed": true,
          "internalType": "address",
          "name": "NodeAddress",
          "type": "address"
        },
        {
          "indexed": false,
          "internalType": "bytes",
          "name": "PublicKey",
          "type": "bytes"
        }
      ],
      "name": "NodePublicKeyReplaced",
      "type": "event"
    },
    {
      "anonymous": false,
      "inputs": [
        {
          "indexed": true,
          "internalType": "address",
          "name": "NodeAddress",
          "type": "address"
        },
        {
          "indexed": false,
          "internalType": "uint256",
          "name": "Amount",
          "type": "uint256"
        }
      ],
      "name": "Staked",
      "type": "event"
    },
    {
      "anonymous": false,
      "inputs": [
        {
          "indexed": true,
          "internalType": "address",
          "name": "NodeAddress",
          "type": "address"
        },
        {
          "indexed": false,
          "internalType": "uint256",
          "name": "Amount",
          "type": "uint256"
        }
      ],
      "name": "Unstaked",
      "type": "event"
    },
    {
      "anonymous": false,
      "inputs": [
        {
          "indexed": true,
          "internalType": "address",
          "name": "NodeAddress",
          "type": "address"
        },
        {
          "indexed": false,
          "internalType": "uint256",
          "name": "Amount",
          "type": "uint256"
        }
      ],
      "name": "Withdrawn",
      "type": "event"
    },
    {
      "anonymous": false,
      "inputs": [
        {
          "indexed": true,
          "internalType": "address",
          "name": "NodeAddress",
          "type": "address"
        }
      ],
      "name": "NodeAdded",
      "type": "event"
    },
    {
      "anonymous": false,
      "inputs": [
        {
          "indexed": true,
          "internalType": "address",
          "name": "NodeAddress",
          "type": "address"
        }
      ],
      "name": "NodeRemoved",
      "type": "event"
    },
    {
      "anonymous": false,
      "inputs": [
        {
          "indexed": true,
          "internalType": "address",
          "name": "NodeAddress",
          "type": "address"
        },
        {
          "indexed": false,
          "internalType": "uint256",
          "name": "Type",
          "type": "uint256"
        },
        {
          "indexed": false,
          "internalType": "bytes",
          "name": "Arg1",
          "type": "bytes"
        },
        {
          "indexed": false,
          "internalType": "bytes",
          "name": "Arg2",
          "type": "bytes"
        }
      ],
      "name": "Reported",
      "type": "event"
    },
    {
      "anonymous": false,
      "inputs": [
        {
          "indexed": true,
          "internalType": "address",
          "name": "NodeAddress",
          "type": "address"
        },
        {
          "indexed": false,
          "internalType": "uint256",
          "name": "Amount",
          "type": "uint256"
        }
      ],
      "name": "Fined",
      "type": "event"
    },
    {
      "anonymous": false,
      "inputs": [
        {
          "indexed": true,
          "internalType": "address",
          "name": "NodeAddress",
          "type": "address"
        },
        {
          "indexed": false,
          "internalType": "uint256",
          "name": "Amount",
          "type": "uint256"
        }
      ],
      "name": "FinePaid",
      "type": "event"
    },
    {
      "anonymous": false,
      "inputs": [
        {
          "indexed": true,
          "internalType": "uint256",
          "name": "Round",
          "type": "uint256"
        },
        {
          "indexed": false,
          "internalType": "uint256",
          "name": "BlockHeight",
          "type": "uint256"
        }
      ],
      "name": "DKGReset",
      "type": "event"
    },
    {
      "constant": false,
      "inputs": [
        {
          "internalType": "address",
          "name": "NewOwner",
          "type": "address"
        }
      ],
      "name": "transferOwnership",
      "outputs": [],
      "payable": false,
      "stateMutability": "nonpayable",
      "type": "function"
    },
    {
      "constant": false,
      "inputs": [
        {
          "internalType": "uint256",
          "name": "MinStake",
          "type": "uint256"
        },
        {
          "internalType": "uint256",
          "name": "LockupPeriod",
          "type": "uint256"
        },
        {
          "internalType": "uint256",
          "name": "MinGasPrice",
          "type": "uint256"
        },
        {
          "internalType": "uint256",
          "name": "BlockGasLimit",
          "type": "uint256"
        },
        {
          "internalType": "uint256",
          "name": "LambdaBA",
          "type": "uint256"
        },
        {
          "internalType": "uint256",
          "name": "LambdaDKG",
          "type": "uint256"
        },
        {
          "internalType": "uint256",
          "name": "NotaryParamAlpha",
          "type": "uint256"
        },
        {
          "internalType": "uint256",
          "name": "NotaryParamBeta",
          "type": "uint256"
        },
        {
          "internalType": "uint256",
          "name": "RoundLength",
          "type": "uint256"
        },
        {
          "internalType": "uint256",
          "name": "MinBlockInterval",
          "type": "uint256"
        },
        {
          "internalType": "uint256[]",
          "name": "FineValues",
          "type": "uint256[]"
        }
      ],
      "name": "updateConfiguration",
      "outputs": [],
      "payable": false,
      "stateMutability": "nonpayable",
      "type": "function"
    },
    {
      "constant": false,
      "inputs": [
        {
          "internalType": "bytes",
          "name": "Complaint",
          "type": "bytes"
        }
      ],
      "name": "addDKGComplaint",
      "outputs": [],
      "payable": false,
      "stateMutability": "nonpayable",
      "type": "function"
    },
    {
      "constant": false,
      "inputs": [
        {
          "internalType": "bytes",
          "name": "PublicKey",
          "type": "bytes"
        }
      ],
      "name": "addDKGMasterPublicKey",
      "outputs": [],
      "payable": false,
      "stateMutability": "nonpayable",
      "type": "function"
    },
    {
      "constant": false,
      "inputs": [
        {
          "internalType": "bytes",
          "name": "MPKReady",
          "type": "bytes"
        }
      ],
      "name": "addDKGMPKReady",
      "outputs": [],
      "payable": false,
      "stateMutability": "nonpayable",
      "type": "function"
    },
    {
      "constant": false,
      "inputs": [
        {
          "internalType": "bytes",
          "name": "Finalize",
          "type": "bytes"
        }
      ],
      "name": "addDKGFinalize",
      "outputs": [],
      "payable": false,
      "stateMutability": "nonpayable",
      "type": "function"
    },
    {
      "constant": false,
      "inputs": [
        {
          "internalType": "bytes",
          "name": "Success",
          "type": "bytes"
        }
      ],
      "name": "addDKGSuccess",
      "outputs": [],
      "payable": false,
      "stateMutability": "nonpayable",
      "type": "function"
    },
    {
      "constant": false,
      "inputs": [
        {
          "internalType": "address",
          "name": "NodeAddress",
          "type": "address"
        }
      ],
      "name": "payFine",
      "outputs": [],
      "payable": true,
      "stateMutability": "payable",
      "type": "function"
    },
    {
      "constant": true,
      "inputs": [],
      "name": "nodesLength",
      "outputs": [
        {
          "internalType": "uint256",
          "name": "",
          "type": "uint256"
        }
      ],
      "payable": false,
      "stateMutability": "view",
      "type": "function"
    },
    {
      "constant": false,
      "inputs": [
        {
          "internalType": "uint256",
          "name": "Round",
          "type": "uint256"
        },
        {
          "internalType": "bytes",
          "name": "SignedCRS",
          "type": "bytes"
        }
      ],
      "name": "proposeCRS",
      "outputs": [],
      "payable": false,
      "stateMutability": "nonpayable",
      "type": "function"
    },
    {
      "constant": false,
      "inputs": [
        {
          "internalType": "uint256",
          "name": "Type",
          "type": "uint256"
        },
        {
          "internalType": "bytes",
          "name": "Arg1",
          "type": "bytes"
        },
        {
          "internalType": "bytes",
          "name": "Arg2",
          "type": "bytes"
        }
      ],
      "name": "report",
      "outputs": [],
      "payable": false,
      "stateMutability": "nonpayable",
      "type": "function"
    },
    {
      "constant": false,
      "inputs": [
        {
          "internalType": "bytes",
          "name": "NewSignedCRS",
          "type": "bytes"
        }
      ],
      "name": "resetDKG",
      "outputs": [],
      "payable": false,
      "stateMutability": "nonpayable",
      "type": "function"
    },
    {
      "constant": false,
      "inputs": [
        {
          "internalType": "bytes",
          "name": "PublicKey",
          "type": "bytes"
        },
        {
          "internalType": "string",
          "name": "Name",
          "type": "string"
        },
        {
          "internalType": "string",
          "name": "Email",
          "type": "string"
        },
        {
          "internalType": "string",
          "name": "Location",
          "type": "string"
        },
        {
          "internalType": "string",
          "name": "Url",
          "type": "string"
        }
      ],
      "name": "register",
      "outputs": [],
      "payable": true,
      "stateMutability": "payable",
      "type": "function"
    },
    {
      "constant": false,
      "inputs": [
        {
          "internalType": "bytes",
          "name": "NewPublicKey",
          "type": "bytes"
        }
      ],
      "name": "replaceNodePublicKey",
      "outputs": [],
      "payable": false,
      "stateMutability": "nonpayable",
      "type": "function"
    },
    {
      "constant": false,
      "inputs": [],
      "name": "stake",
      "outputs": [],
      "payable": true,
      "stateMutability": "payable",
      "type": "function"
    },
    {
      "constant": false,
      "inputs": [
        {
          "internalType": "address",
          "name": "NewOwner",
          "type": "address"
        }
      ],
      "name": "transferNodeOwnership",
      "outputs": [],
      "payable": false,
      "stateMutability": "nonpayable",
      "type": "function"
    },
    {
      "constant": false,
      "inputs": [
        {
          "internalType": "address",
          "name": "OldOwner",
          "type": "address"
        },
        {
          "internalType": "address",
          "name": "NewOwner",
          "type": "address"
        }
      ],
      "name": "transferNodeOwnershipByFoundation",
      "outputs": [],
      "payable": false,
      "stateMutability": "nonpayable",
      "type": "function"
    },
    {
      "constant": false,
      "inputs": [
        {
          "internalType": "uint256",
          "name": "Amount",
          "type": "uint256"
        }
      ],
      "name": "unstake",
      "outputs": [],
      "payable": false,
      "stateMutability": "nonpayable",
      "type": "function"
    },
    {
      "constant": false,
      "inputs": [
        {
          "internalType": "string",
          "name": "Name",
          "type": "string"
        },
        {
          "internalType": "string",
          "name": "Email",
          "type": "string"
        },
        {
          "internalType": "string",
          "name": "Location",
          "type": "string"
        },
        {
          "internalType": "string",
          "name": "Url",
          "type": "string"
        }
      ],
      "name": "updateNodeInfo",
      "outputs": [],
      "payable": false,
      "stateMutability": "nonpayable",
      "type": "function"
    },
    {
      "constant": false,
      "inputs": [],
      "name": "withdraw",
      "outputs": [],
      "payable": false,
      "stateMutability": "nonpayable",
      "type": "function"
    },
    {
      "constant": true,
      "inputs": [],
      "name": "withdrawable",
      "outputs": [
        {
          "internalType": "bool",
          "name": "",
          "type": "bool"
        }
      ],
      "payable": false,
      "stateMutability": "view",
      "type": "function"
    }
  ],
  "bytecode": "0x608060405234801561001057600080fd5b50611abc806100206000396000f3fe60806040526004361061038c5760003560e01c8063817b1cd2116101dc578063b03e75e411610102578063d96ed505116100a0578063ee947a7c1161006f578063ee947a7c1461144c578063f077165914611461578063f2fde38b1461148b578063f33de6c0146114be5761038c565b8063d96ed505146113c5578063dd2083d0146113da578063e746714d146113ef578063ed3fbdf9146114195761038c565b8063c5ea6ea1116100dc578063c5ea6ea114610e70578063d21abb78146110b0578063d242f4cc146110da578063d767fdc9146113925761038c565b8063b03e75e414610d8e578063b3606b5614610da3578063c448af3414610db85761038c565b806399aadb9a1161017a578063a9601a8d11610149578063a9601a8d14610d25578063ab6a401314610505578063ae1f289d14610d3a578063af58ef0614610d645761038c565b806399aadb9a14610c895780639bc9f48914610cb3578063a0488e5514610ce6578063a1e460eb14610cfb5761038c565b80638b649b94116101b65780638b649b9414610b8f5780638ca5516214610ba45780638d90a15914610bb95780638da5cb5b14610c585761038c565b8063817b1cd214610b325780638503112314610b475780638a59136914610b7a5761038c565b80633a4b66f1116102c15780634cb38c7a1161025f57806370f3ac541161022e57806370f3ac5414610a9a5780637877a79714610acd5780637a8c1c1e14610ae25780637ecfdeca14610af75761038c565b80634cb38c7a14610a705780634ccaa59d146105055780635018830114610a8557806357316157146105055761038c565b80633f007c201161029b5780633f007c20146105055780634264ecf914610a235780634773132514610a465780634c52321414610a5b5761038c565b80633a4b66f1146109e05780633ccfd60b146109e85780633edfa229146109fd5761038c565b806322f8a8891161032e5780632deb3316116103085780632deb33161461084f5780632e17de7814610864578063320c08261461088e578063375b3c0a146109cb5761038c565b806322f8a889146105055780632357e72a1461083a57806329891e74146105055761038c565b806318160ddd1161036a57806318160ddd146104f057806319cf10bc146105055780631c53c280146105b65780631f29f5c8146108255761038c565b8063072bf11a146103915780630b3441dc146103d857806311c7c321146103ff575b600080fd5b34801561039d57600080fd5b506103c4600480360360208110156103b457600080fd5b50356001600160a01b03166114d3565b604080519115158252519081900360200190f35b3480156103e457600080fd5b506103ed6114e8565b60408051918252519081900360200190f35b34801561040b57600080fd5b506104ee600480360361016081101561042357600080fd5b81359160208101359160408201359160608101359160808201359160a08101359160c08201359160e08101359161010082013591610120810135918101906101608101610140820135600160201b81111561047d57600080fd5b82018360208201111561048f57600080fd5b803590602001918460208302840111600160201b831117156104b057600080fd5b9190808060200260200160405190810160405280939291908181526020018383602002808284376000920191909152509295506114ee945050505050565b005b3480156104fc57600080fd5b506103ed611512565b34801561051157600080fd5b506104ee6004803603602081101561052857600080fd5b810190602081018135600160201b81111561054257600080fd5b82018360208201111561055457600080fd5b803590602001918460018302840111600160201b8311171561057557600080fd5b91908080601f016020809104026020016040519081016040528093929190818152602001838380828437600092019190915250929550611518945050505050565b3480156105c257600080fd5b506105e0600480360360208110156105d957600080fd5b503561151b565b604051808b6001600160a01b03166001600160a01b03168152602001806020018a81526020018981526020018060200180602001806020018060200188815260200187815260200186810386528f818151815260200191508051906020019080838360005b8381101561065d578181015183820152602001610645565b50505050905090810190601f16801561068a5780820380516001836020036101000a031916815260200191505b5086810385528c5181528c516020918201918e019080838360005b838110156106bd5781810151838201526020016106a5565b50505050905090810190601f1680156106ea5780820380516001836020036101000a031916815260200191505b5086810384528b5181528b516020918201918d019080838360005b8381101561071d578181015183820152602001610705565b50505050905090810190601f16801561074a5780820380516001836020036101000a031916815260200191505b5086810383528a5181528a516020918201918c019080838360005b8381101561077d578181015183820152602001610765565b50505050905090810190601f1680156107aa5780820380516001836020036101000a031916815260200191505b5086810382528951815289516020918201918b019080838360005b838110156107dd5781810151838201526020016107c5565b50505050905090810190601f16801561080a5780820380516001836020036101000a031916815260200191505b509f5050505050505050505050505050505060405180910390f35b34801561083157600080fd5b506103ed611845565b34801561084657600080fd5b506103ed61184b565b34801561085b57600080fd5b506103ed611851565b34801561087057600080fd5b506104ee6004803603602081101561088757600080fd5b5035611518565b34801561089a57600080fd5b506104ee600480360360608110156108b157600080fd5b81359190810190604081016020820135600160201b8111156108d257600080fd5b8201836020820111156108e457600080fd5b803590602001918460018302840111600160201b8311171561090557600080fd5b91908080601f0160208091040260200160405190810160405280939291908181526020018383808284376000920191909152509295949360208101935035915050600160201b81111561095757600080fd5b82018360208201111561096957600080fd5b803590602001918460018302840111600160201b8311171561098a57600080fd5b91908080601f016020809104026020016040519081016040528093929190818152602001838380828437600092019190915250929550611857945050505050565b3480156109d757600080fd5b506103ed61185c565b6104ee611862565b3480156109f457600080fd5b506104ee611862565b6104ee60048036036020811015610a1357600080fd5b50356001600160a01b0316611518565b348015610a2f57600080fd5b506104ee60048036036020811015610a1357600080fd5b348015610a5257600080fd5b506103ed611864565b348015610a6757600080fd5b506103ed61186a565b348015610a7c57600080fd5b506103ed611870565b348015610a9157600080fd5b506103c4611876565b348015610aa657600080fd5b506103c460048036036020811015610abd57600080fd5b50356001600160a01b031661187b565b348015610ad957600080fd5b506103ed611890565b348015610aee57600080fd5b506103ed611896565b348015610b0357600080fd5b506104ee60048036036040811015610b1a57600080fd5b506001600160a01b038135811691602001351661189c565b348015610b3e57600080fd5b506103ed6118a0565b348015610b5357600080fd5b506103ed60048036036020811015610b6a57600080fd5b50356001600160a01b03166118a6565b348015610b8657600080fd5b506103ed6118b8565b348015610b9b57600080fd5b506103ed6118be565b348015610bb057600080fd5b506103ed6118c4565b348015610bc557600080fd5b50610be360048036036020811015610bdc57600080fd5b50356118ca565b6040805160208082528351818301528351919283929083019185019080838360005b83811015610c1d578181015183820152602001610c05565b50505050905090810190601f168015610c4a5780820380516001836020036101000a031916815260200191505b509250505060405180910390f35b348015610c6457600080fd5b50610c6d611970565b604080516001600160a01b039092168252519081900360200190f35b348015610c9557600080fd5b506103ed60048036036020811015610cac57600080fd5b503561197f565b348015610cbf57600080fd5b506103c460048036036020811015610cd657600080fd5b50356001600160a01b0316611991565b348015610cf257600080fd5b506103ed6119a6565b348015610d0757600080fd5b506103c460048036036020811015610d1e57600080fd5b50356119ac565b348015610d3157600080fd5b506103ed6119c1565b348015610d4657600080fd5b506103ed60048036036020811015610d5d57600080fd5b50356119c7565b348015610d7057600080fd5b506103ed60048036036020811015610d8757600080fd5b50356119e5565b348015610d9a57600080fd5b506103ed6119f2565b348015610daf57600080fd5b506103ed6119f8565b348015610dc457600080fd5b506104ee60048036036040811015610ddb57600080fd5b81359190810190604081016020820135600160201b811115610dfc57600080fd5b820183602082011115610e0e57600080fd5b803590602001918460018302840111600160201b83111715610e2f57600080fd5b91908080601f01602080910402602001604051908101604052809392919081815260200183838082843760009201919091525092955061189c945050505050565b348015610e7c57600080fd5b506104ee60048036036080811015610e9357600080fd5b810190602081018135600160201b811115610ead57600080fd5b820183602082011115610ebf57600080fd5b803590602001918460018302840111600160201b83111715610ee057600080fd5b91908080601f0160208091040260200160405190810160405280939291908181526020018383808284376000920191909152509295949360208101935035915050600160201b811115610f3257600080fd5b820183602082011115610f4457600080fd5b803590602001918460018302840111600160201b83111715610f6557600080fd5b91908080601f0160208091040260200160405190810160405280939291908181526020018383808284376000920191909152509295949360208101935035915050600160201b811115610fb757600080fd5b820183602082011115610fc957600080fd5b803590602001918460018302840111600160201b83111715610fea57600080fd5b91908080601f0160208091040260200160405190810160405280939291908181526020018383808284376000920191909152509295949360208101935035915050600160201b81111561103c57600080fd5b82018360208201111561104e57600080fd5b803590602001918460018302840111600160201b8311171561106f57600080fd5b91908080601f0160208091040260200160405190810160405280939291908181526020018383808284376000920191909152509295506119fe945050505050565b3480156110bc57600080fd5b50610be3600480360360208110156110d357600080fd5b5035611a04565b6104ee600480360360a08110156110f057600080fd5b810190602081018135600160201b81111561110a57600080fd5b82018360208201111561111c57600080fd5b803590602001918460018302840111600160201b8311171561113d57600080fd5b91908080601f0160208091040260200160405190810160405280939291908181526020018383808284376000920191909152509295949360208101935035915050600160201b81111561118f57600080fd5b8201836020820111156111a157600080fd5b803590602001918460018302840111600160201b831117156111c257600080fd5b91908080601f0160208091040260200160405190810160405280939291908181526020018383808284376000920191909152509295949360208101935035915050600160201b81111561121457600080fd5b82018360208201111561122657600080fd5b803590602001918460018302840111600160201b8311171561124757600080fd5b91908080601f0160208091040260200160405190810160405280939291908181526020018383808284376000920191909152509295949360208101935035915050600160201b81111561129957600080fd5b8201836020820111156112ab57600080fd5b803590602001918460018302840111600160201b831117156112cc57600080fd5b91908080601f0160208091040260200160405190810160405280939291908181526020018383808284376000920191909152509295949360208101935035915050600160201b81111561131e57600080fd5b82018360208201111561133057600080fd5b803590602001918460018302840111600160201b8311171561135157600080fd5b91908080601f016020809104026020016040519081016040528093929190818152602001838380828437600092019190915250929550611a11945050505050565b34801561139e57600080fd5b506103ed600480360360208110156113b557600080fd5b50356001600160a01b0316611a18565b3480156113d157600080fd5b506103ed611a2a565b3480156113e657600080fd5b506103ed611a30565b3480156113fb57600080fd5b506103c46004803603602081101561141257600080fd5b5035611a36565b34801561142557600080fd5b506103ed6004803603602081101561143c57600080fd5b50356001600160a01b0316611a4b565b34801561145857600080fd5b506103ed611a5d565b34801561146d57600080fd5b506103ed6004803603602081101561148457600080fd5b5035611a63565b34801561149757600080fd5b506104ee600480360360208110156114ae57600080fd5b50356001600160a01b0316611a70565b3480156114ca57600080fd5b506103ed611876565b60136020526000908152604090205460ff1681565b601f5481565b6015546001600160a01b0316331461150557600080fd5b5050505050505050505050565b60015481565b50565b6003818154811061152857fe5b6000918252602091829020600a9091020180546001808301805460408051601f60026000199685161561010002969096019093169490940491820187900487028401870190528083526001600160a01b0390931695509293909291908301828280156115d55780601f106115aa576101008083540402835291602001916115d5565b820191906000526020600020905b8154815290600101906020018083116115b857829003601f168201915b505050505090806002015490806003015490806004018054600181600116156101000203166002900480601f01602080910402602001604051908101604052809291908181526020018280546001816001161561010002031660029004801561167f5780601f106116545761010080835404028352916020019161167f565b820191906000526020600020905b81548152906001019060200180831161166257829003601f168201915b5050505060058301805460408051602060026001851615610100026000190190941693909304601f810184900484028201840190925281815294959493509083018282801561170f5780601f106116e45761010080835404028352916020019161170f565b820191906000526020600020905b8154815290600101906020018083116116f257829003601f168201915b5050505060068301805460408051602060026001851615610100026000190190941693909304601f810184900484028201840190925281815294959493509083018282801561179f5780601f106117745761010080835404028352916020019161179f565b820191906000526020600020905b81548152906001019060200180831161178257829003601f168201915b5050505060078301805460408051602060026001851615610100026000190190941693909304601f810184900484028201840190925281815294959493509083018282801561182f5780601f106118045761010080835404028352916020019161182f565b820191906000526020600020905b81548152906001019060200180831161181257829003601f168201915b505050505090806008015490806009015490508a565b60215481565b60185481565b601d5481565b505050565b60165481565b565b60075481565b60205481565b60145481565b600090565b60116020526000908152604090205460ff1681565b601c5481565b60095481565b5050565b60025481565b60046020526000908152604090205481565b60085481565b60225481565b60195481565b600d81815481106118d757fe5b600091825260209182902001805460408051601f60026000196101006001871615020190941693909304928301859004850281018501909152818152935090918301828280156119685780601f1061193d57610100808354040283529160200191611968565b820191906000526020600020905b81548152906001019060200180831161194b57829003601f168201915b505050505081565b6015546001600160a01b031681565b600c6020526000908152604090205481565b600f6020526000908152604090205460ff1681565b601a5481565b60256020526000908152604090205460ff1681565b601e5481565b602481815481106119d457fe5b600091825260209091200154905081565b600081815481106119d457fe5b60105481565b60235481565b50505050565b600b81815481106118d757fe5b5050505050565b60066020526000908152604090205481565b601b5481565b60125481565b600e6020526000908152604090205460ff1681565b60056020526000908152604090205481565b60175481565b600a81815481106119d457fe5b6015546001600160a01b0316331461151857600080fdfea265627a7a7231582074565603076f576f6642f987e21dfb51c9448a51fe642cb28bad70cdc624d53064736f6c634300050b0032",
  "source": "pragma solidity ^0.5.11;\n\ncontract Governance {\n    // Nodes.\n    struct Node {\n        address owner;\n        bytes publicKey;\n        uint256 staked;\n        uint256 fined;\n        string name;\n        string email;\n        string location;\n        string url;\n        uint256 unstaked;\n        uint256 unstakedAt;\n    }\n\n    // ReportType.\n    enum ReportType {\n        FAIL_STOP,\n        FAIL_STOP_DKG,\n        INVALID_DKG,\n        FORK_VOTE,\n        FORK_BLOCK\n    }\n\n    // 0: round to blockHeight mapping.\n    uint256[] public roundHeight;\n\n    // 1: totalSupply\n    uint256 public totalSupply;\n\n    // 2: totalStaked.\n    uint256 public totalStaked;\n\n    // 3: nodes.\n    Node[] public nodes;\n\n    // 4: stores the array index + 1 of nodes by address.\n    mapping(address => int256) public nodesOffsetByAddress;\n\n    // 5: stores the array index + 1 of nodes by address represented by node key.\n    mapping(address => int256) public nodesOffsetByNodeKeyAddress;\n\n    // 6: last proposed blockheight.\n    mapping(address => uint256) public lastProposedHeight;\n\n    // 7: crsRound.\n    uint256 public crsRound;\n\n    // 8: crs.\n    bytes32 public crs;\n\n    // 9: dkgRound.\n    uint256 public dkgRound;\n\n    // 10: dkgResetCount.\n    uint256[] public dkgResetCount;\n\n    // 11: dkgMasterPublicKeys\n    bytes[] public dkgMasterPublicKeys;\n\n    // 12: dkgMasterPublicKeyOffset\n    mapping(bytes32 => uint256) public dkgMasterPublicKeyOffset;\n\n    // 13: dkgComplaints\n    bytes[] public dkgComplaints;\n\n    // 14: dkgComplaintsProposed\n    mapping(bytes32 => bool) public dkgComplaintsProposed;\n\n    // 15: dkgMPKReadys\n    mapping(address => bool) public dkgMPKReadys;\n\n    // 16: dkgMPKReadysCount\n    uint256 public dkgMPKReadysCount;\n\n    // 17: dkgFinalizeds\n    mapping(address => bool) public dkgFinalizeds;\n\n    // 18: dkgFinalizedsCount\n    uint256 public dkgFinalizedsCount;\n\n    // 19: dkgSuccesses\n    mapping(address => bool) public dkgSuccesses;\n\n    // 20: dkgSuccessesCount\n    uint256 public dkgSuccessesCount;\n\n    // 21: owner address.\n    address public owner;\n\n    // 22: minStake\n    uint256 public minStake;\n\n    // 23: lockupPeriod\n    uint256 public lockupPeriod;\n\n    // 24: miningVelocity.\n    uint256 public miningVelocity;  // stored as miningVelocity * 10^8\n\n    // 25: nextHalvingSupply.\n    uint256 public nextHalvingSupply;\n\n    // 26: lastHalvedAmount.\n    uint256 public lastHalvedAmount;\n\n    // 27: min gas price.\n    uint256 public minGasPrice;\n\n    // 28: blockGasLimit.\n    uint256 public blockGasLimit;\n\n    // Lambda related.\n    // 29: BA.\n    uint256 public lambdaBA;\n    // 30: DKG.\n    uint256 public lambdaDKG;\n\n    // Set related.\n    // 31: notary set size\n    uint256 public notarySetSize;\n\n    // 32: notary set parameter: alpha.\n    uint256 public notaryParamAlpha;  // stored as notaryParamAlpha * 10^8\n\n    // 33: notary set parameter: beta.\n    uint256 public notaryParamBeta;  // stored as notaryParamBeta * 10^8\n\n    // 34: roundLength.\n    uint256 public roundLength;\n\n    // 35: minBlockInterval.\n    uint256 public minBlockInterval;\n\n    // 36: Fine value.\n    uint256[] public fineValues;\n\n    // 37: Fined records.\n    mapping(bytes32 => bool) public finedRecords;\n\n    // ----------\n    // Modifiers.\n    // ----------\n    modifier onlyOwner() {\n        require(msg.sender == owner);\n        _;\n    }\n\n    // -------\n    // Events.\n    // -------\n    event ConfigurationChanged();\n    event CRSProposed(uint256 indexed Round, bytes32 CRS);\n    event NodeOwnershipTransfered(address indexed NodeAddress, address indexed NewOwnerAddress);\n    event NodePublicKeyReplaced(address indexed NodeAddress, bytes PublicKey);\n    event Staked(address indexed NodeAddress, uint256 Amount);\n    event Unstaked(address indexed NodeAddress, uint256 Amount);\n    event Withdrawn(address indexed NodeAddress, uint256 Amount);\n    event NodeAdded(address indexed NodeAddress);\n    event NodeRemoved(address indexed NodeAddress);\n    event Reported(address indexed NodeAddress, uint256 Type, bytes Arg1, bytes Arg2);\n    event Fined(address indexed NodeAddress, uint256 Amount);\n    event FinePaid(address indexed NodeAddress, uint256 Amount);\n    event DKGReset(uint256 indexed Round, uint256 BlockHeight);\n\n    // ---------\n    // Protocol.\n    // ---------\n\n    // transferOwnership(newOwner)\n    function transferOwnership(address NewOwner) public onlyOwner {\n    }\n\n    // UpdateConfiguration(...)\n    function updateConfiguration(\n        uint256 MinStake,\n        uint256 LockupPeriod,\n        uint256 MinGasPrice,\n        uint256 BlockGasLimit,\n        uint256 LambdaBA,\n        uint256 LambdaDKG,\n        uint256 NotaryParamAlpha,\n        uint256 NotaryParamBeta,\n        uint256 RoundLength,\n        uint256 MinBlockInterval,\n        uint256[] memory FineValues)\n        public onlyOwner {\n    }\n\n    // AddDKGComplaint(complaint)\n    function addDKGComplaint(bytes memory Complaint) public {\n    }\n\n    // AddDKGMasterPublicKey(key)\n    function addDKGMasterPublicKey(bytes memory PublicKey) public {\n    }\n\n    // AddDKGMPKReady(ready)\n    function addDKGMPKReady(bytes memory MPKReady) public {\n    }\n\n    // AddDKGFinalize(finalize)\n    function addDKGFinalize(bytes memory Finalize) public {\n    }\n\n    // AddDKGSuccess(success)\n    function addDKGSuccess(bytes memory Success) public {\n    }\n\n    // PayFine(node)\n    function payFine(address NodeAddress) public payable {\n    }\n\n    // Return number of nodes.\n    function nodesLength() view public returns (uint256) {\n    }\n\n    // ProposeCRS(round, signedCRS)\n    function proposeCRS(uint256 Round, bytes memory SignedCRS) public {\n    }\n\n    // Report(enum type, bytes[] payloads)\n    function report(uint256 Type, bytes memory Arg1, bytes memory Arg2) public {\n    }\n\n    // ResetDKG(newSignedCRS)\n    function resetDKG(bytes memory NewSignedCRS) public {\n    }\n\n\n    // ------------------------\n    // Node Related operations.\n    // ------------------------\n\n    // Register(public_key, name, email, location, url)\n    function register(bytes memory PublicKey, string memory Name,\n                      string memory Email, string memory Location,\n                      string memory Url) public payable {\n    }\n\n    // ReplaceNodePublicKey(newPublicKey)\n    function replaceNodePublicKey(bytes memory NewPublicKey) public {\n    }\n\n    // Stake()\n    function stake() public payable {\n    }\n\n    // transferNodeOwnership(newOwner)\n    function transferNodeOwnership(address NewOwner) public {\n    }\n\n    // transferNodeOwnershipByFoundation(oldOwner, newOwner)\n    function transferNodeOwnershipByFoundation(address OldOwner, address NewOwner) public {\n    }\n\n    // Unstake()\n    function unstake(uint256 Amount) public {\n    }\n\n    // UpdateNodeInfo(name, email, location, url)\n    function updateNodeInfo(string memory Name, string memory Email,\n                            string memory Location, string memory Url) public {\n    }\n\n    // Withdraw()\n    function withdraw() public {\n    }\n\n    // Withdrawable()\n    function withdrawable() public view returns (bool) {\n    }\n}\n",
  "sourcePath": "/Users/aitjcize/Work/tangerine-network/node-staker/contracts/Governance.sol",
  "compiler": {
    "name": "solc",
    "version": "0.5.11+commit.c082d0b4.Emscripten.clang"
  },
  "schemaVersion": "3.0.11",
  "updatedAt": "2019-09-29T03:11:52.542Z",
  "devdoc": {
    "methods": {}
  },
  "userdoc": {
    "methods": {}
  }
}