{
  "contractName": "NodeStakerMock",
  "abi": [
    {
      "constant": true,
      "inputs": [],
      "name": "registered",
      "outputs": [
        {
          "internalType": "bool",
          "name": "",
          "type": "bool"
        }
      ],
      "payable": false,
      "stateMutability": "view",
      "type": "function"
    },
    {
      "constant": false,
      "inputs": [],
      "name": "withdraw",
      "outputs": [],
      "payable": false,
      "stateMutability": "nonpayable",
      "type": "function"
    },
    {
      "constant": false,
      "inputs": [
        {
          "internalType": "bytes",
          "name": "key",
          "type": "bytes"
        }
      ],
      "name": "replaceNodePublicKey",
      "outputs": [],
      "payable": false,
      "stateMutability": "nonpayable",
      "type": "function"
    },
    {
      "constant": false,
      "inputs": [
        {
          "internalType": "uint256",
          "name": "amount",
          "type": "uint256"
        }
      ],
      "name": "vest",
      "outputs": [],
      "payable": false,
      "stateMutability": "nonpayable",
      "type": "function"
    },
    {
      "constant": true,
      "inputs": [],
      "name": "availableUnstakeAmount",
      "outputs": [
        {
          "internalType": "uint256",
          "name": "",
          "type": "uint256"
        }
      ],
      "payable": false,
      "stateMutability": "view",
      "type": "function"
    },
    {
      "constant": false,
      "inputs": [],
      "name": "renounceOwnership",
      "outputs": [],
      "payable": false,
      "stateMutability": "nonpayable",
      "type": "function"
    },
    {
      "constant": false,
      "inputs": [
        {
          "internalType": "uint256",
          "name": "amount",
          "type": "uint256"
        }
      ],
      "name": "unstakeByFoundation",
      "outputs": [],
      "payable": false,
      "stateMutability": "nonpayable",
      "type": "function"
    },
    {
      "constant": true,
      "inputs": [],
      "name": "owner",
      "outputs": [
        {
          "internalType": "address",
          "name": "",
          "type": "address"
        }
      ],
      "payable": false,
      "stateMutability": "view",
      "type": "function"
    },
    {
      "constant": true,
      "inputs": [],
      "name": "isOwner",
      "outputs": [
        {
          "internalType": "bool",
          "name": "",
          "type": "bool"
        }
      ],
      "payable": false,
      "stateMutability": "view",
      "type": "function"
    },
    {
      "constant": true,
      "inputs": [],
      "name": "getStakedAmount",
      "outputs": [
        {
          "internalType": "uint256",
          "name": "",
          "type": "uint256"
        }
      ],
      "payable": false,
      "stateMutability": "view",
      "type": "function"
    },
    {
      "constant": true,
      "inputs": [],
      "name": "getUnstakedAmount",
      "outputs": [
        {
          "internalType": "uint256",
          "name": "",
          "type": "uint256"
        }
      ],
      "payable": false,
      "stateMutability": "view",
      "type": "function"
    },
    {
      "constant": false,
      "inputs": [
        {
          "internalType": "bytes",
          "name": "publicKey",
          "type": "bytes"
        },
        {
          "internalType": "string",
          "name": "name",
          "type": "string"
        },
        {
          "internalType": "string",
          "name": "email",
          "type": "string"
        },
        {
          "internalType": "string",
          "name": "location",
          "type": "string"
        },
        {
          "internalType": "string",
          "name": "url",
          "type": "string"
        }
      ],
      "name": "register",
      "outputs": [],
      "payable": false,
      "stateMutability": "nonpayable",
      "type": "function"
    },
    {
      "constant": true,
      "inputs": [],
      "name": "isFoundation",
      "outputs": [
        {
          "internalType": "bool",
          "name": "",
          "type": "bool"
        }
      ],
      "payable": false,
      "stateMutability": "view",
      "type": "function"
    },
    {
      "constant": false,
      "inputs": [
        {
          "internalType": "address",
          "name": "newOwner",
          "type": "address"
        }
      ],
      "name": "transferOwnershipByFoundation",
      "outputs": [],
      "payable": false,
      "stateMutability": "nonpayable",
      "type": "function"
    },
    {
      "constant": false,
      "inputs": [
        {
          "internalType": "address",
          "name": "newOwner",
          "type": "address"
        }
      ],
      "name": "transferOwnership",
      "outputs": [],
      "payable": false,
      "stateMutability": "nonpayable",
      "type": "function"
    },
    {
      "constant": false,
      "inputs": [
        {
          "internalType": "address",
          "name": "_address",
          "type": "address"
        }
      ],
      "name": "setFoundationAddress",
      "outputs": [],
      "payable": false,
      "stateMutability": "nonpayable",
      "type": "function"
    },
    {
      "constant": true,
      "inputs": [],
      "name": "vested",
      "outputs": [
        {
          "internalType": "uint256",
          "name": "",
          "type": "uint256"
        }
      ],
      "payable": false,
      "stateMutability": "view",
      "type": "function"
    },
    {
      "payable": true,
      "stateMutability": "payable",
      "type": "fallback"
    },
    {
      "anonymous": false,
      "inputs": [
        {
          "indexed": false,
          "internalType": "address",
          "name": "sender",
          "type": "address"
        },
        {
          "indexed": false,
          "internalType": "bytes",
          "name": "publicKey",
          "type": "bytes"
        },
        {
          "indexed": false,
          "internalType": "string",
          "name": "name",
          "type": "string"
        },
        {
          "indexed": false,
          "internalType": "string",
          "name": "email",
          "type": "string"
        },
        {
          "indexed": false,
          "internalType": "string",
          "name": "location",
          "type": "string"
        },
        {
          "indexed": false,
          "internalType": "string",
          "name": "url",
          "type": "string"
        },
        {
          "indexed": false,
          "internalType": "uint256",
          "name": "value",
          "type": "uint256"
        }
      ],
      "name": "NodeRegister",
      "type": "event"
    },
    {
      "anonymous": false,
      "inputs": [
        {
          "indexed": false,
          "internalType": "address",
          "name": "sender",
          "type": "address"
        },
        {
          "indexed": false,
          "internalType": "uint256",
          "name": "amount",
          "type": "uint256"
        }
      ],
      "name": "NodeDeposited",
      "type": "event"
    },
    {
      "anonymous": false,
      "inputs": [
        {
          "indexed": false,
          "internalType": "uint256",
          "name": "amount",
          "type": "uint256"
        }
      ],
      "name": "NodeVested",
      "type": "event"
    },
    {
      "anonymous": false,
      "inputs": [
        {
          "indexed": false,
          "internalType": "address",
          "name": "owner",
          "type": "address"
        },
        {
          "indexed": false,
          "internalType": "uint256",
          "name": "amount",
          "type": "uint256"
        }
      ],
      "name": "NodeWithdrawn",
      "type": "event"
    },
    {
      "anonymous": false,
      "inputs": [
        {
          "indexed": false,
          "internalType": "bytes",
          "name": "oldKey",
          "type": "bytes"
        },
        {
          "indexed": false,
          "internalType": "bytes",
          "name": "newKey",
          "type": "bytes"
        }
      ],
      "name": "NodePublicKeyReplaced",
      "type": "event"
    },
    {
      "anonymous": false,
      "inputs": [
        {
          "indexed": false,
          "internalType": "uint256",
          "name": "amount",
          "type": "uint256"
        }
      ],
      "name": "UnstakedByFoundation",
      "type": "event"
    },
    {
      "anonymous": false,
      "inputs": [
        {
          "indexed": false,
          "internalType": "address",
          "name": "from",
          "type": "address"
        },
        {
          "indexed": false,
          "internalType": "address",
          "name": "to",
          "type": "address"
        }
      ],
      "name": "OwnershipTranferedByFoundation",
      "type": "event"
    },
    {
      "anonymous": false,
      "inputs": [
        {
          "indexed": true,
          "internalType": "address",
          "name": "previousOwner",
          "type": "address"
        },
        {
          "indexed": true,
          "internalType": "address",
          "name": "newOwner",
          "type": "address"
        }
      ],
      "name": "OwnershipTransferred",
      "type": "event"
    },
    {
      "constant": false,
      "inputs": [
        {
          "internalType": "address",
          "name": "govAddress",
          "type": "address"
        }
      ],
      "name": "setGovernance",
      "outputs": [],
      "payable": false,
      "stateMutability": "nonpayable",
      "type": "function"
    }
  ],
  "bytecode": "0x60806040819052600280546001600160a01b031990811673246fcde58581e2754f215a523c0718c4bfc8041f179091556000805490911633178082556001600160a01b0316917f8be0079c531659141344cd1fd0a4f28419497f9722a3daafe3b4186f6b6457e0908290a3600180546001600160a01b031916331790556124198061008b6000396000f3fe6080604052600436106101095760003560e01c8063a4e15db911610095578063d392a7d511610064578063d392a7d51461062e578063e97b387414610643578063f2fde38b14610676578063f41377ca146106a9578063fea5657c146106dc57610109565b8063a4e15db91461030c578063ab033ea914610321578063b244fdcb14610354578063d242f4cc1461036957610109565b80636d6c12f3116100dc5780636d6c12f314610260578063715018a61461028757806375fc0e0d1461029c5780638da5cb5b146102c65780638f32d59b146102f757610109565b80632de40ce3146101455780633ccfd60b1461016e5780633f007c20146101855780636a760b8014610236575b6040805133815234602082015281517f47a6374f7d50799673b068330af87c22b7a43b4d8ac57b66965556967d814ea0929181900390910190a1005b34801561015157600080fd5b5061015a6106f1565b604080519115158252519081900360200190f35b34801561017a57600080fd5b50610183610701565b005b34801561019157600080fd5b50610183600480360360208110156101a857600080fd5b810190602081018135600160201b8111156101c257600080fd5b8201836020820111156101d457600080fd5b803590602001918460018302840111600160201b831117156101f557600080fd5b91908080601f0160208091040260200160405190810160405280939291908181526020018383808284376000920191909152509295506108bc945050505050565b34801561024257600080fd5b506101836004803603602081101561025957600080fd5b5035610fba565b34801561026c57600080fd5b506102756110ba565b60408051918252519081900360200190f35b34801561029357600080fd5b506101836110c0565b3480156102a857600080fd5b50610183600480360360208110156102bf57600080fd5b503561111b565b3480156102d257600080fd5b506102db6112aa565b604080516001600160a01b039092168252519081900360200190f35b34801561030357600080fd5b5061015a6112b9565b34801561031857600080fd5b506102756112ca565b34801561032d57600080fd5b506101836004803603602081101561034457600080fd5b50356001600160a01b031661174e565b34801561036057600080fd5b50610275611781565b34801561037557600080fd5b50610183600480360360a081101561038c57600080fd5b810190602081018135600160201b8111156103a657600080fd5b8201836020820111156103b857600080fd5b803590602001918460018302840111600160201b831117156103d957600080fd5b91908080601f0160208091040260200160405190810160405280939291908181526020018383808284376000920191909152509295949360208101935035915050600160201b81111561042b57600080fd5b82018360208201111561043d57600080fd5b803590602001918460018302840111600160201b8311171561045e57600080fd5b91908080601f0160208091040260200160405190810160405280939291908181526020018383808284376000920191909152509295949360208101935035915050600160201b8111156104b057600080fd5b8201836020820111156104c257600080fd5b803590602001918460018302840111600160201b831117156104e357600080fd5b91908080601f0160208091040260200160405190810160405280939291908181526020018383808284376000920191909152509295949360208101935035915050600160201b81111561053557600080fd5b82018360208201111561054757600080fd5b803590602001918460018302840111600160201b8311171561056857600080fd5b91908080601f0160208091040260200160405190810160405280939291908181526020018383808284376000920191909152509295949360208101935035915050600160201b8111156105ba57600080fd5b8201836020820111156105cc57600080fd5b803590602001918460018302840111600160201b831117156105ed57600080fd5b91908080601f016020809104026020016040519081016040528093929190818152602001838380828437600092019190915250929550611c08945050505050565b34801561063a57600080fd5b5061015a6121bb565b34801561064f57600080fd5b506101836004803603602081101561066657600080fd5b50356001600160a01b03166121cc565b34801561068257600080fd5b506101836004803603602081101561069957600080fd5b50356001600160a01b0316612275565b3480156106b557600080fd5b50610183600480360360208110156106cc57600080fd5b50356001600160a01b0316612292565b3480156106e857600080fd5b506102756122ff565b600254600160a01b900460ff1681565b6107096112b9565b61071257600080fd5b600254600160a01b900460ff16610765576040805162461bcd60e51b81526020600482015260126024820152711b9bdd081c9959da5cdd195c9959081e595d60721b604482015290519081900360640190fd5b600260009054906101000a90046001600160a01b03166001600160a01b031663501883016040518163ffffffff1660e01b815260040160206040518083038186803b1580156107b357600080fd5b505afa1580156107c7573d6000803e3d6000fd5b505050506040513d60208110156107dd57600080fd5b50511561084d57600260009054906101000a90046001600160a01b03166001600160a01b0316633ccfd60b6040518163ffffffff1660e01b8152600401600060405180830381600087803b15801561083457600080fd5b505af1158015610848573d6000803e3d6000fd5b505050505b604051303190339082156108fc029083906000818181858888f1935050505015801561087d573d6000803e3d6000fd5b50604080513381526020810183905281517f9f1245572fa226a27329c7a7ed7ea272cda61da69552acd8bb7bef5677d08367929181900390910190a150565b6108c46112b9565b6108cd57600080fd5b600254600160a01b900460ff16610920576040805162461bcd60e51b81526020600482015260126024820152711b9bdd081c9959da5cdd195c9959081e595d60721b604482015290519081900360640190fd5b60025460408051638503112360e01b815230600482015290516060926000926001600160a01b0390911691638503112391602480820192602092909190829003018186803b15801561097157600080fd5b505afa158015610985573d6000803e3d6000fd5b505050506040513d602081101561099b57600080fd5b5051600254604080516238a78560e71b81526004810184905290519293506001600160a01b0390911691631c53c28091602480820192600092909190829003018186803b1580156109eb57600080fd5b505afa1580156109ff573d6000803e3d6000fd5b505050506040513d6000823e601f3d908101601f19168201604052610140811015610a2957600080fd5b815160208301805160405192949293830192919084600160201b821115610a4f57600080fd5b908301906020820185811115610a6457600080fd5b8251600160201b811182820188101715610a7d57600080fd5b82525081516020918201929091019080838360005b83811015610aaa578181015183820152602001610a92565b50505050905090810190601f168015610ad75780820380516001836020036101000a031916815260200191505b50604081815260208301519083015160609093018051919593949293929184600160201b821115610b0757600080fd5b908301906020820185811115610b1c57600080fd5b8251600160201b811182820188101715610b3557600080fd5b82525081516020918201929091019080838360005b83811015610b62578181015183820152602001610b4a565b50505050905090810190601f168015610b8f5780820380516001836020036101000a031916815260200191505b5060405260200180516040519392919084600160201b821115610bb157600080fd5b908301906020820185811115610bc657600080fd5b8251600160201b811182820188101715610bdf57600080fd5b82525081516020918201929091019080838360005b83811015610c0c578181015183820152602001610bf4565b50505050905090810190601f168015610c395780820380516001836020036101000a031916815260200191505b5060405260200180516040519392919084600160201b821115610c5b57600080fd5b908301906020820185811115610c7057600080fd5b8251600160201b811182820188101715610c8957600080fd5b82525081516020918201929091019080838360005b83811015610cb6578181015183820152602001610c9e565b50505050905090810190601f168015610ce35780820380516001836020036101000a031916815260200191505b5060405260200180516040519392919084600160201b821115610d0557600080fd5b908301906020820185811115610d1a57600080fd5b8251600160201b811182820188101715610d3357600080fd5b82525081516020918201929091019080838360005b83811015610d60578181015183820152602001610d48565b50505050905090810190601f168015610d8d5780820380516001836020036101000a031916815260200191505b5060405260200180519060200190929190805190602001909291905050509091929394959697985088985090919293949596509091929394955090919293945090919293509091925090915090505080925050600260009054906101000a90046001600160a01b03166001600160a01b0316633f007c20846040518263ffffffff1660e01b81526004018080602001828103825283818151815260200191508051906020019080838360005b83811015610e51578181015183820152602001610e39565b50505050905090810190601f168015610e7e5780820380516001836020036101000a031916815260200191505b5092505050600060405180830381600087803b158015610e9d57600080fd5b505af1158015610eb1573d6000803e3d6000fd5b505050507f2a886948c8f577e57fd34e5888c9b134e579ddaaeabac3cb20ead075782f17db8284604051808060200180602001838103835285818151815260200191508051906020019080838360005b83811015610f19578181015183820152602001610f01565b50505050905090810190601f168015610f465780820380516001836020036101000a031916815260200191505b50838103825284518152845160209182019186019080838360005b83811015610f79578181015183820152602001610f61565b50505050905090810190601f168015610fa65780820380516001836020036101000a031916815260200191505b5094505050505060405180910390a1505050565b610fc26121bb565b611005576040805162461bcd60e51b815260206004820152600f60248201526e37b7363c903337bab73230ba34b7b760891b604482015290519081900360640190fd5b600254600160a01b900460ff16611058576040805162461bcd60e51b81526020600482015260126024820152711b9bdd081c9959da5cdd195c9959081e595d60721b604482015290519081900360640190fd5b60035461106b908263ffffffff61230516565b600355600454611081908263ffffffff61230516565b6004556040805182815290517fa7f17da00ac7401519320391a010c46adcec80f542c7783c14b2fde4afe380539181900360200190a150565b60045481565b6110c86112b9565b6110d157600080fd5b600080546040516001600160a01b03909116907f8be0079c531659141344cd1fd0a4f28419497f9722a3daafe3b4186f6b6457e0908390a3600080546001600160a01b0319169055565b6111236121bb565b611166576040805162461bcd60e51b815260206004820152600f60248201526e37b7363c903337bab73230ba34b7b760891b604482015290519081900360640190fd5b600254600160a01b900460ff166111b9576040805162461bcd60e51b81526020600482015260126024820152711b9bdd081c9959da5cdd195c9959081e595d60721b604482015290519081900360640190fd5b6004548111156111fa5760405162461bcd60e51b81526004018080602001828103825260438152602001806123a26043913960600191505060405180910390fd5b60045461120d908263ffffffff61231e16565b50600254604080516305c2fbcf60e31b81526004810184905290516001600160a01b0390921691632e17de789160248082019260009290919082900301818387803b15801561125b57600080fd5b505af115801561126f573d6000803e3d6000fd5b50506040805184815290517f78db5ae4d05ddd56ed1b359714d67cf8b55a5ed64a3d6783c0372f3cefe9e2089350908190036020019150a150565b6000546001600160a01b031690565b6000546001600160a01b0316331490565b60025460408051638503112360e01b8152306004820152905160009283926001600160a01b0390911691638503112391602480820192602092909190829003018186803b15801561131a57600080fd5b505afa15801561132e573d6000803e3d6000fd5b505050506040513d602081101561134457600080fd5b5051600254604080516238a78560e71b81526004810184905290519293506000926001600160a01b0390921691631c53c280916024808201928692909190829003018186803b15801561139657600080fd5b505afa1580156113aa573d6000803e3d6000fd5b505050506040513d6000823e601f3d908101601f191682016040526101408110156113d457600080fd5b815160208301805160405192949293830192919084600160201b8211156113fa57600080fd5b90830190602082018581111561140f57600080fd5b8251600160201b81118282018810171561142857600080fd5b82525081516020918201929091019080838360005b8381101561145557818101518382015260200161143d565b50505050905090810190601f1680156114825780820380516001836020036101000a031916815260200191505b50604081815260208301519083015160609093018051919593949293929184600160201b8211156114b257600080fd5b9083019060208201858111156114c757600080fd5b8251600160201b8111828201881017156114e057600080fd5b82525081516020918201929091019080838360005b8381101561150d5781810151838201526020016114f5565b50505050905090810190601f16801561153a5780820380516001836020036101000a031916815260200191505b5060405260200180516040519392919084600160201b82111561155c57600080fd5b90830190602082018581111561157157600080fd5b8251600160201b81118282018810171561158a57600080fd5b82525081516020918201929091019080838360005b838110156115b757818101518382015260200161159f565b50505050905090810190601f1680156115e45780820380516001836020036101000a031916815260200191505b5060405260200180516040519392919084600160201b82111561160657600080fd5b90830190602082018581111561161b57600080fd5b8251600160201b81118282018810171561163457600080fd5b82525081516020918201929091019080838360005b83811015611661578181015183820152602001611649565b50505050905090810190601f16801561168e5780820380516001836020036101000a031916815260200191505b5060405260200180516040519392919084600160201b8211156116b057600080fd5b9083019060208201858111156116c557600080fd5b8251600160201b8111828201881017156116de57600080fd5b82525081516020918201929091019080838360005b8381101561170b5781810151838201526020016116f3565b50505050905090810190601f1680156117385780820380516001836020036101000a031916815260200191505b5060405250969b50505050505050505050505090565b6117566112b9565b61175f57600080fd5b600280546001600160a01b0319166001600160a01b0392909216919091179055565b60025460408051638503112360e01b8152306004820152905160009283926001600160a01b0390911691638503112391602480820192602092909190829003018186803b1580156117d157600080fd5b505afa1580156117e5573d6000803e3d6000fd5b505050506040513d60208110156117fb57600080fd5b5051600254604080516238a78560e71b81526004810184905290519293506000926001600160a01b0390921691631c53c280916024808201928692909190829003018186803b15801561184d57600080fd5b505afa158015611861573d6000803e3d6000fd5b505050506040513d6000823e601f3d908101601f1916820160405261014081101561188b57600080fd5b815160208301805160405192949293830192919084600160201b8211156118b157600080fd5b9083019060208201858111156118c657600080fd5b8251600160201b8111828201881017156118df57600080fd5b82525081516020918201929091019080838360005b8381101561190c5781810151838201526020016118f4565b50505050905090810190601f1680156119395780820380516001836020036101000a031916815260200191505b50604081815260208301519083015160609093018051919593949293929184600160201b82111561196957600080fd5b90830190602082018581111561197e57600080fd5b8251600160201b81118282018810171561199757600080fd5b82525081516020918201929091019080838360005b838110156119c45781810151838201526020016119ac565b50505050905090810190601f1680156119f15780820380516001836020036101000a031916815260200191505b5060405260200180516040519392919084600160201b821115611a1357600080fd5b908301906020820185811115611a2857600080fd5b8251600160201b811182820188101715611a4157600080fd5b82525081516020918201929091019080838360005b83811015611a6e578181015183820152602001611a56565b50505050905090810190601f168015611a9b5780820380516001836020036101000a031916815260200191505b5060405260200180516040519392919084600160201b821115611abd57600080fd5b908301906020820185811115611ad257600080fd5b8251600160201b811182820188101715611aeb57600080fd5b82525081516020918201929091019080838360005b83811015611b18578181015183820152602001611b00565b50505050905090810190601f168015611b455780820380516001836020036101000a031916815260200191505b5060405260200180516040519392919084600160201b821115611b6757600080fd5b908301906020820185811115611b7c57600080fd5b8251600160201b811182820188101715611b9557600080fd5b82525081516020918201929091019080838360005b83811015611bc2578181015183820152602001611baa565b50505050905090810190601f168015611bef5780820380516001836020036101000a031916815260200191505b50604052602001519c5050505050505050505050505090565b611c106112b9565b611c1957600080fd5b600254600160a01b900460ff1615611c6d576040805162461bcd60e51b8152602060048201526012602482015271185b1c9958591e481c9959da5cdd195c995960721b604482015290519081900360640190fd5b60025460408051631bad9e0560e11b815290516000926001600160a01b03169163375b3c0a916004808301926020929190829003018186803b158015611cb257600080fd5b505afa158015611cc6573d6000803e3d6000fd5b505050506040513d6020811015611cdc57600080fd5b5051600254604051633490bd3360e21b815260a060048201908152895160a483015289519394506001600160a01b039092169263d242f4cc9285928b928b928b928b928b92918291602482019160448101916064820191608481019160c49091019060208d019080838360005b83811015611d61578181015183820152602001611d49565b50505050905090810190601f168015611d8e5780820380516001836020036101000a031916815260200191505b5086810385528a5181528a516020918201918c019080838360005b83811015611dc1578181015183820152602001611da9565b50505050905090810190601f168015611dee5780820380516001836020036101000a031916815260200191505b5086810384528951815289516020918201918b019080838360005b83811015611e21578181015183820152602001611e09565b50505050905090810190601f168015611e4e5780820380516001836020036101000a031916815260200191505b5086810383528851815288516020918201918a019080838360005b83811015611e81578181015183820152602001611e69565b50505050905090810190601f168015611eae5780820380516001836020036101000a031916815260200191505b50868103825287518152875160209182019189019080838360005b83811015611ee1578181015183820152602001611ec9565b50505050905090810190601f168015611f0e5780820380516001836020036101000a031916815260200191505b509a50505050505050505050506000604051808303818588803b158015611f3457600080fd5b505af1158015611f48573d6000803e3d6000fd5b50506002805460ff60a01b1916600160a01b1790555050604080513380825260c0820185905260e060208084018281528c51928501929092528b517f4d0296a31b4182dca6aff087582c284441743a09fbc7484015f5b57cb6801f8e965092948c948c948c948c948c948c9493908401916060850191608086019160a08701916101008801918e019080838360005b83811015611fef578181015183820152602001611fd7565b50505050905090810190601f16801561201c5780820380516001836020036101000a031916815260200191505b5086810385528b5181528b516020918201918d019080838360005b8381101561204f578181015183820152602001612037565b50505050905090810190601f16801561207c5780820380516001836020036101000a031916815260200191505b5086810384528a5181528a516020918201918c019080838360005b838110156120af578181015183820152602001612097565b50505050905090810190601f1680156120dc5780820380516001836020036101000a031916815260200191505b5086810383528951815289516020918201918b019080838360005b8381101561210f5781810151838201526020016120f7565b50505050905090810190601f16801561213c5780820380516001836020036101000a031916815260200191505b5086810382528851815288516020918201918a019080838360005b8381101561216f578181015183820152602001612157565b50505050905090810190601f16801561219c5780820380516001836020036101000a031916815260200191505b509c5050505050505050505050505060405180910390a1505050505050565b6001546001600160a01b0316331490565b6121d46121bb565b612217576040805162461bcd60e51b815260206004820152600f60248201526e37b7363c903337bab73230ba34b7b760891b604482015290519081900360640190fd5b60006122216112aa565b905061222c82612333565b604080516001600160a01b0380841682528416602082015281517ffe459a7f10652ddcfe92820200e4635f93262667763531372e5bc42e56ec7c9b929181900390910190a15050565b61227d6112b9565b61228657600080fd5b61228f81612333565b50565b61229a6121bb565b6122dd576040805162461bcd60e51b815260206004820152600f60248201526e37b7363c903337bab73230ba34b7b760891b604482015290519081900360640190fd5b600180546001600160a01b0319166001600160a01b0392909216919091179055565b60035481565b60008282018381101561231757600080fd5b9392505050565b60008282111561232d57600080fd5b50900390565b6001600160a01b03811661234657600080fd5b600080546040516001600160a01b03808516939216917f8be0079c531659141344cd1fd0a4f28419497f9722a3daafe3b4186f6b6457e091a3600080546001600160a01b0319166001600160a01b039290921691909117905556fe756e7374616b696e6720616d6f756e742073686f756c64206e6f742062652067726561746572207468616e20617661696c61626c65556e7374616b65416d6f756e742ea265627a7a7231582053a54d64381645b314042de3e3eb5d21e27644ae46318599ce9464c234e8584664736f6c634300050b0032",
  "source": "pragma solidity ^0.5.11;\n\nimport \"../NodeStaker.sol\";\n\ncontract NodeStakerMock is NodeStaker {\n  \n  function setGovernance(address govAddress) public onlyOwner {\n    gov = Governance(govAddress);\n  }\n\n}\n",
  "sourcePath": "/Users/aitjcize/Work/tangerine-network/node-staker/contracts/test/NodeStakerMock.sol",
  "compiler": {
    "name": "solc",
    "version": "0.5.11+commit.c082d0b4.Emscripten.clang"
  },
  "schemaVersion": "3.0.11",
  "updatedAt": "2019-09-29T03:11:52.538Z",
  "devdoc": {
    "methods": {
      "isOwner()": {
        "return": "true if `msg.sender` is the owner of the contract."
      },
      "owner()": {
        "return": "the address of the owner."
      },
      "register(bytes,string,string,string,string)": {
        "details": "register a node"
      },
      "renounceOwnership()": {
        "details": "Allows the current owner to relinquish control of the contract."
      },
      "replaceNodePublicKey(bytes)": {
        "details": "replace node public key"
      },
      "transferOwnership(address)": {
        "details": "Allows the current owner to transfer control of the contract to a newOwner.",
        "params": {
          "newOwner": "The address to transfer ownership to."
        }
      },
      "transferOwnershipByFoundation(address)": {
        "details": "transfer node ownership"
      },
      "unstakeByFoundation(uint256)": {
        "details": "unstake by foundation"
      },
      "vest(uint256)": {
        "details": "vest"
      },
      "withdraw()": {
        "details": "withdraw balance"
      }
    }
  },
  "userdoc": {
    "methods": {
      "renounceOwnership()": {
        "notice": "Renouncing to ownership will leave the contract without an owner. It will not be possible to call the functions with the `onlyOwner` modifier anymore."
      },
      "unstakeByFoundation(uint256)": {
        "notice": "only can unstake vested amount"
      }
    }
  }
}