{
  "contractName": "NodeStaker",
  "abi": [
    {
      "constant": true,
      "inputs": [],
      "name": "registered",
      "outputs": [
        {
          "internalType": "bool",
          "name": "",
          "type": "bool"
        }
      ],
      "payable": false,
      "stateMutability": "view",
      "type": "function"
    },
    {
      "constant": true,
      "inputs": [],
      "name": "availableUnstakeAmount",
      "outputs": [
        {
          "internalType": "uint256",
          "name": "",
          "type": "uint256"
        }
      ],
      "payable": false,
      "stateMutability": "view",
      "type": "function"
    },
    {
      "constant": false,
      "inputs": [],
      "name": "renounceOwnership",
      "outputs": [],
      "payable": false,
      "stateMutability": "nonpayable",
      "type": "function"
    },
    {
      "constant": true,
      "inputs": [],
      "name": "owner",
      "outputs": [
        {
          "internalType": "address",
          "name": "",
          "type": "address"
        }
      ],
      "payable": false,
      "stateMutability": "view",
      "type": "function"
    },
    {
      "constant": true,
      "inputs": [],
      "name": "isOwner",
      "outputs": [
        {
          "internalType": "bool",
          "name": "",
          "type": "bool"
        }
      ],
      "payable": false,
      "stateMutability": "view",
      "type": "function"
    },
    {
      "constant": true,
      "inputs": [],
      "name": "isFoundation",
      "outputs": [
        {
          "internalType": "bool",
          "name": "",
          "type": "bool"
        }
      ],
      "payable": false,
      "stateMutability": "view",
      "type": "function"
    },
    {
      "constant": false,
      "inputs": [
        {
          "internalType": "address",
          "name": "newOwner",
          "type": "address"
        }
      ],
      "name": "transferOwnership",
      "outputs": [],
      "payable": false,
      "stateMutability": "nonpayable",
      "type": "function"
    },
    {
      "constant": false,
      "inputs": [
        {
          "internalType": "address",
          "name": "_address",
          "type": "address"
        }
      ],
      "name": "setFoundationAddress",
      "outputs": [],
      "payable": false,
      "stateMutability": "nonpayable",
      "type": "function"
    },
    {
      "constant": true,
      "inputs": [],
      "name": "vested",
      "outputs": [
        {
          "internalType": "uint256",
          "name": "",
          "type": "uint256"
        }
      ],
      "payable": false,
      "stateMutability": "view",
      "type": "function"
    },
    {
      "payable": true,
      "stateMutability": "payable",
      "type": "fallback"
    },
    {
      "anonymous": false,
      "inputs": [
        {
          "indexed": false,
          "internalType": "address",
          "name": "sender",
          "type": "address"
        },
        {
          "indexed": false,
          "internalType": "bytes",
          "name": "publicKey",
          "type": "bytes"
        },
        {
          "indexed": false,
          "internalType": "string",
          "name": "name",
          "type": "string"
        },
        {
          "indexed": false,
          "internalType": "string",
          "name": "email",
          "type": "string"
        },
        {
          "indexed": false,
          "internalType": "string",
          "name": "location",
          "type": "string"
        },
        {
          "indexed": false,
          "internalType": "string",
          "name": "url",
          "type": "string"
        },
        {
          "indexed": false,
          "internalType": "uint256",
          "name": "value",
          "type": "uint256"
        }
      ],
      "name": "NodeRegister",
      "type": "event"
    },
    {
      "anonymous": false,
      "inputs": [
        {
          "indexed": false,
          "internalType": "address",
          "name": "sender",
          "type": "address"
        },
        {
          "indexed": false,
          "internalType": "uint256",
          "name": "amount",
          "type": "uint256"
        }
      ],
      "name": "NodeDeposited",
      "type": "event"
    },
    {
      "anonymous": false,
      "inputs": [
        {
          "indexed": false,
          "internalType": "uint256",
          "name": "amount",
          "type": "uint256"
        }
      ],
      "name": "NodeVested",
      "type": "event"
    },
    {
      "anonymous": false,
      "inputs": [
        {
          "indexed": false,
          "internalType": "address",
          "name": "owner",
          "type": "address"
        },
        {
          "indexed": false,
          "internalType": "uint256",
          "name": "amount",
          "type": "uint256"
        }
      ],
      "name": "NodeWithdrawn",
      "type": "event"
    },
    {
      "anonymous": false,
      "inputs": [
        {
          "indexed": false,
          "internalType": "bytes",
          "name": "oldKey",
          "type": "bytes"
        },
        {
          "indexed": false,
          "internalType": "bytes",
          "name": "newKey",
          "type": "bytes"
        }
      ],
      "name": "NodePublicKeyReplaced",
      "type": "event"
    },
    {
      "anonymous": false,
      "inputs": [
        {
          "indexed": false,
          "internalType": "uint256",
          "name": "amount",
          "type": "uint256"
        }
      ],
      "name": "UnstakedByFoundation",
      "type": "event"
    },
    {
      "anonymous": false,
      "inputs": [
        {
          "indexed": false,
          "internalType": "address",
          "name": "from",
          "type": "address"
        },
        {
          "indexed": false,
          "internalType": "address",
          "name": "to",
          "type": "address"
        }
      ],
      "name": "OwnershipTranferedByFoundation",
      "type": "event"
    },
    {
      "anonymous": false,
      "inputs": [
        {
          "indexed": true,
          "internalType": "address",
          "name": "previousOwner",
          "type": "address"
        },
        {
          "indexed": true,
          "internalType": "address",
          "name": "newOwner",
          "type": "address"
        }
      ],
      "name": "OwnershipTransferred",
      "type": "event"
    },
    {
      "constant": true,
      "inputs": [],
      "name": "getStakedAmount",
      "outputs": [
        {
          "internalType": "uint256",
          "name": "",
          "type": "uint256"
        }
      ],
      "payable": false,
      "stateMutability": "view",
      "type": "function"
    },
    {
      "constant": true,
      "inputs": [],
      "name": "getUnstakedAmount",
      "outputs": [
        {
          "internalType": "uint256",
          "name": "",
          "type": "uint256"
        }
      ],
      "payable": false,
      "stateMutability": "view",
      "type": "function"
    },
    {
      "constant": false,
      "inputs": [
        {
          "internalType": "bytes",
          "name": "publicKey",
          "type": "bytes"
        },
        {
          "internalType": "string",
          "name": "name",
          "type": "string"
        },
        {
          "internalType": "string",
          "name": "email",
          "type": "string"
        },
        {
          "internalType": "string",
          "name": "location",
          "type": "string"
        },
        {
          "internalType": "string",
          "name": "url",
          "type": "string"
        }
      ],
      "name": "register",
      "outputs": [],
      "payable": false,
      "stateMutability": "nonpayable",
      "type": "function"
    },
    {
      "constant": false,
      "inputs": [],
      "name": "withdraw",
      "outputs": [],
      "payable": false,
      "stateMutability": "nonpayable",
      "type": "function"
    },
    {
      "constant": false,
      "inputs": [
        {
          "internalType": "bytes",
          "name": "key",
          "type": "bytes"
        }
      ],
      "name": "replaceNodePublicKey",
      "outputs": [],
      "payable": false,
      "stateMutability": "nonpayable",
      "type": "function"
    },
    {
      "constant": false,
      "inputs": [
        {
          "internalType": "address",
          "name": "newOwner",
          "type": "address"
        }
      ],
      "name": "transferOwnershipByFoundation",
      "outputs": [],
      "payable": false,
      "stateMutability": "nonpayable",
      "type": "function"
    },
    {
      "constant": false,
      "inputs": [
        {
          "internalType": "uint256",
          "name": "amount",
          "type": "uint256"
        }
      ],
      "name": "unstakeByFoundation",
      "outputs": [],
      "payable": false,
      "stateMutability": "nonpayable",
      "type": "function"
    },
    {
      "constant": false,
      "inputs": [
        {
          "internalType": "uint256",
          "name": "amount",
          "type": "uint256"
        }
      ],
      "name": "vest",
      "outputs": [],
      "payable": false,
      "stateMutability": "nonpayable",
      "type": "function"
    }
  ],
  "bytecode": "0x60806040819052600280546001600160a01b031990811673246fcde58581e2754f215a523c0718c4bfc8041f179091556000805490911633178082556001600160a01b0316917f8be0079c531659141344cd1fd0a4f28419497f9722a3daafe3b4186f6b6457e0908290a3600180546001600160a01b031916331790556123a88061008b6000396000f3fe6080604052600436106100fe5760003560e01c80638f32d59b11610095578063d392a7d511610064578063d392a7d5146105f0578063e97b387414610605578063f2fde38b14610638578063f41377ca1461066b578063fea5657c1461069e576100fe565b80638f32d59b146102ec578063a4e15db914610301578063b244fdcb14610316578063d242f4cc1461032b576100fe565b80636d6c12f3116100d15780636d6c12f314610255578063715018a61461027c57806375fc0e0d146102915780638da5cb5b146102bb576100fe565b80632de40ce31461013a5780633ccfd60b146101635780633f007c201461017a5780636a760b801461022b575b6040805133815234602082015281517f47a6374f7d50799673b068330af87c22b7a43b4d8ac57b66965556967d814ea0929181900390910190a1005b34801561014657600080fd5b5061014f6106b3565b604080519115158252519081900360200190f35b34801561016f57600080fd5b506101786106c3565b005b34801561018657600080fd5b506101786004803603602081101561019d57600080fd5b810190602081018135600160201b8111156101b757600080fd5b8201836020820111156101c957600080fd5b803590602001918460018302840111600160201b831117156101ea57600080fd5b91908080601f01602080910402602001604051908101604052809392919081815260200183838082843760009201919091525092955061087e945050505050565b34801561023757600080fd5b506101786004803603602081101561024e57600080fd5b5035610f7c565b34801561026157600080fd5b5061026a61107c565b60408051918252519081900360200190f35b34801561028857600080fd5b50610178611082565b34801561029d57600080fd5b50610178600480360360208110156102b457600080fd5b50356110dd565b3480156102c757600080fd5b506102d061126c565b604080516001600160a01b039092168252519081900360200190f35b3480156102f857600080fd5b5061014f61127b565b34801561030d57600080fd5b5061026a61128c565b34801561032257600080fd5b5061026a611710565b34801561033757600080fd5b50610178600480360360a081101561034e57600080fd5b810190602081018135600160201b81111561036857600080fd5b82018360208201111561037a57600080fd5b803590602001918460018302840111600160201b8311171561039b57600080fd5b91908080601f0160208091040260200160405190810160405280939291908181526020018383808284376000920191909152509295949360208101935035915050600160201b8111156103ed57600080fd5b8201836020820111156103ff57600080fd5b803590602001918460018302840111600160201b8311171561042057600080fd5b91908080601f0160208091040260200160405190810160405280939291908181526020018383808284376000920191909152509295949360208101935035915050600160201b81111561047257600080fd5b82018360208201111561048457600080fd5b803590602001918460018302840111600160201b831117156104a557600080fd5b91908080601f0160208091040260200160405190810160405280939291908181526020018383808284376000920191909152509295949360208101935035915050600160201b8111156104f757600080fd5b82018360208201111561050957600080fd5b803590602001918460018302840111600160201b8311171561052a57600080fd5b91908080601f0160208091040260200160405190810160405280939291908181526020018383808284376000920191909152509295949360208101935035915050600160201b81111561057c57600080fd5b82018360208201111561058e57600080fd5b803590602001918460018302840111600160201b831117156105af57600080fd5b91908080601f016020809104026020016040519081016040528093929190818152602001838380828437600092019190915250929550611b97945050505050565b3480156105fc57600080fd5b5061014f61214a565b34801561061157600080fd5b506101786004803603602081101561062857600080fd5b50356001600160a01b031661215b565b34801561064457600080fd5b506101786004803603602081101561065b57600080fd5b50356001600160a01b0316612204565b34801561067757600080fd5b506101786004803603602081101561068e57600080fd5b50356001600160a01b0316612221565b3480156106aa57600080fd5b5061026a61228e565b600254600160a01b900460ff1681565b6106cb61127b565b6106d457600080fd5b600254600160a01b900460ff16610727576040805162461bcd60e51b81526020600482015260126024820152711b9bdd081c9959da5cdd195c9959081e595d60721b604482015290519081900360640190fd5b600260009054906101000a90046001600160a01b03166001600160a01b031663501883016040518163ffffffff1660e01b815260040160206040518083038186803b15801561077557600080fd5b505afa158015610789573d6000803e3d6000fd5b505050506040513d602081101561079f57600080fd5b50511561080f57600260009054906101000a90046001600160a01b03166001600160a01b0316633ccfd60b6040518163ffffffff1660e01b8152600401600060405180830381600087803b1580156107f657600080fd5b505af115801561080a573d6000803e3d6000fd5b505050505b604051303190339082156108fc029083906000818181858888f1935050505015801561083f573d6000803e3d6000fd5b50604080513381526020810183905281517f9f1245572fa226a27329c7a7ed7ea272cda61da69552acd8bb7bef5677d08367929181900390910190a150565b61088661127b565b61088f57600080fd5b600254600160a01b900460ff166108e2576040805162461bcd60e51b81526020600482015260126024820152711b9bdd081c9959da5cdd195c9959081e595d60721b604482015290519081900360640190fd5b60025460408051638503112360e01b815230600482015290516060926000926001600160a01b0390911691638503112391602480820192602092909190829003018186803b15801561093357600080fd5b505afa158015610947573d6000803e3d6000fd5b505050506040513d602081101561095d57600080fd5b5051600254604080516238a78560e71b81526004810184905290519293506001600160a01b0390911691631c53c28091602480820192600092909190829003018186803b1580156109ad57600080fd5b505afa1580156109c1573d6000803e3d6000fd5b505050506040513d6000823e601f3d908101601f191682016040526101408110156109eb57600080fd5b815160208301805160405192949293830192919084600160201b821115610a1157600080fd5b908301906020820185811115610a2657600080fd5b8251600160201b811182820188101715610a3f57600080fd5b82525081516020918201929091019080838360005b83811015610a6c578181015183820152602001610a54565b50505050905090810190601f168015610a995780820380516001836020036101000a031916815260200191505b50604081815260208301519083015160609093018051919593949293929184600160201b821115610ac957600080fd5b908301906020820185811115610ade57600080fd5b8251600160201b811182820188101715610af757600080fd5b82525081516020918201929091019080838360005b83811015610b24578181015183820152602001610b0c565b50505050905090810190601f168015610b515780820380516001836020036101000a031916815260200191505b5060405260200180516040519392919084600160201b821115610b7357600080fd5b908301906020820185811115610b8857600080fd5b8251600160201b811182820188101715610ba157600080fd5b82525081516020918201929091019080838360005b83811015610bce578181015183820152602001610bb6565b50505050905090810190601f168015610bfb5780820380516001836020036101000a031916815260200191505b5060405260200180516040519392919084600160201b821115610c1d57600080fd5b908301906020820185811115610c3257600080fd5b8251600160201b811182820188101715610c4b57600080fd5b82525081516020918201929091019080838360005b83811015610c78578181015183820152602001610c60565b50505050905090810190601f168015610ca55780820380516001836020036101000a031916815260200191505b5060405260200180516040519392919084600160201b821115610cc757600080fd5b908301906020820185811115610cdc57600080fd5b8251600160201b811182820188101715610cf557600080fd5b82525081516020918201929091019080838360005b83811015610d22578181015183820152602001610d0a565b50505050905090810190601f168015610d4f5780820380516001836020036101000a031916815260200191505b5060405260200180519060200190929190805190602001909291905050509091929394959697985088985090919293949596509091929394955090919293945090919293509091925090915090505080925050600260009054906101000a90046001600160a01b03166001600160a01b0316633f007c20846040518263ffffffff1660e01b81526004018080602001828103825283818151815260200191508051906020019080838360005b83811015610e13578181015183820152602001610dfb565b50505050905090810190601f168015610e405780820380516001836020036101000a031916815260200191505b5092505050600060405180830381600087803b158015610e5f57600080fd5b505af1158015610e73573d6000803e3d6000fd5b505050507f2a886948c8f577e57fd34e5888c9b134e579ddaaeabac3cb20ead075782f17db8284604051808060200180602001838103835285818151815260200191508051906020019080838360005b83811015610edb578181015183820152602001610ec3565b50505050905090810190601f168015610f085780820380516001836020036101000a031916815260200191505b50838103825284518152845160209182019186019080838360005b83811015610f3b578181015183820152602001610f23565b50505050905090810190601f168015610f685780820380516001836020036101000a031916815260200191505b5094505050505060405180910390a1505050565b610f8461214a565b610fc7576040805162461bcd60e51b815260206004820152600f60248201526e37b7363c903337bab73230ba34b7b760891b604482015290519081900360640190fd5b600254600160a01b900460ff1661101a576040805162461bcd60e51b81526020600482015260126024820152711b9bdd081c9959da5cdd195c9959081e595d60721b604482015290519081900360640190fd5b60035461102d908263ffffffff61229416565b600355600454611043908263ffffffff61229416565b6004556040805182815290517fa7f17da00ac7401519320391a010c46adcec80f542c7783c14b2fde4afe380539181900360200190a150565b60045481565b61108a61127b565b61109357600080fd5b600080546040516001600160a01b03909116907f8be0079c531659141344cd1fd0a4f28419497f9722a3daafe3b4186f6b6457e0908390a3600080546001600160a01b0319169055565b6110e561214a565b611128576040805162461bcd60e51b815260206004820152600f60248201526e37b7363c903337bab73230ba34b7b760891b604482015290519081900360640190fd5b600254600160a01b900460ff1661117b576040805162461bcd60e51b81526020600482015260126024820152711b9bdd081c9959da5cdd195c9959081e595d60721b604482015290519081900360640190fd5b6004548111156111bc5760405162461bcd60e51b81526004018080602001828103825260438152602001806123316043913960600191505060405180910390fd5b6004546111cf908263ffffffff6122ad16565b50600254604080516305c2fbcf60e31b81526004810184905290516001600160a01b0390921691632e17de789160248082019260009290919082900301818387803b15801561121d57600080fd5b505af1158015611231573d6000803e3d6000fd5b50506040805184815290517f78db5ae4d05ddd56ed1b359714d67cf8b55a5ed64a3d6783c0372f3cefe9e2089350908190036020019150a150565b6000546001600160a01b031690565b6000546001600160a01b0316331490565b60025460408051638503112360e01b8152306004820152905160009283926001600160a01b0390911691638503112391602480820192602092909190829003018186803b1580156112dc57600080fd5b505afa1580156112f0573d6000803e3d6000fd5b505050506040513d602081101561130657600080fd5b5051600254604080516238a78560e71b81526004810184905290519293506000926001600160a01b0390921691631c53c280916024808201928692909190829003018186803b15801561135857600080fd5b505afa15801561136c573d6000803e3d6000fd5b505050506040513d6000823e601f3d908101601f1916820160405261014081101561139657600080fd5b815160208301805160405192949293830192919084600160201b8211156113bc57600080fd5b9083019060208201858111156113d157600080fd5b8251600160201b8111828201881017156113ea57600080fd5b82525081516020918201929091019080838360005b838110156114175781810151838201526020016113ff565b50505050905090810190601f1680156114445780820380516001836020036101000a031916815260200191505b50604081815260208301519083015160609093018051919593949293929184600160201b82111561147457600080fd5b90830190602082018581111561148957600080fd5b8251600160201b8111828201881017156114a257600080fd5b82525081516020918201929091019080838360005b838110156114cf5781810151838201526020016114b7565b50505050905090810190601f1680156114fc5780820380516001836020036101000a031916815260200191505b5060405260200180516040519392919084600160201b82111561151e57600080fd5b90830190602082018581111561153357600080fd5b8251600160201b81118282018810171561154c57600080fd5b82525081516020918201929091019080838360005b83811015611579578181015183820152602001611561565b50505050905090810190601f1680156115a65780820380516001836020036101000a031916815260200191505b5060405260200180516040519392919084600160201b8211156115c857600080fd5b9083019060208201858111156115dd57600080fd5b8251600160201b8111828201881017156115f657600080fd5b82525081516020918201929091019080838360005b8381101561162357818101518382015260200161160b565b50505050905090810190601f1680156116505780820380516001836020036101000a031916815260200191505b5060405260200180516040519392919084600160201b82111561167257600080fd5b90830190602082018581111561168757600080fd5b8251600160201b8111828201881017156116a057600080fd5b82525081516020918201929091019080838360005b838110156116cd5781810151838201526020016116b5565b50505050905090810190601f1680156116fa5780820380516001836020036101000a031916815260200191505b5060405250969b50505050505050505050505090565b60025460408051638503112360e01b8152306004820152905160009283926001600160a01b0390911691638503112391602480820192602092909190829003018186803b15801561176057600080fd5b505afa158015611774573d6000803e3d6000fd5b505050506040513d602081101561178a57600080fd5b5051600254604080516238a78560e71b81526004810184905290519293506000926001600160a01b0390921691631c53c280916024808201928692909190829003018186803b1580156117dc57600080fd5b505afa1580156117f0573d6000803e3d6000fd5b505050506040513d6000823e601f3d908101601f1916820160405261014081101561181a57600080fd5b815160208301805160405192949293830192919084600160201b82111561184057600080fd5b90830190602082018581111561185557600080fd5b8251600160201b81118282018810171561186e57600080fd5b82525081516020918201929091019080838360005b8381101561189b578181015183820152602001611883565b50505050905090810190601f1680156118c85780820380516001836020036101000a031916815260200191505b50604081815260208301519083015160609093018051919593949293929184600160201b8211156118f857600080fd5b90830190602082018581111561190d57600080fd5b8251600160201b81118282018810171561192657600080fd5b82525081516020918201929091019080838360005b8381101561195357818101518382015260200161193b565b50505050905090810190601f1680156119805780820380516001836020036101000a031916815260200191505b5060405260200180516040519392919084600160201b8211156119a257600080fd5b9083019060208201858111156119b757600080fd5b8251600160201b8111828201881017156119d057600080fd5b82525081516020918201929091019080838360005b838110156119fd5781810151838201526020016119e5565b50505050905090810190601f168015611a2a5780820380516001836020036101000a031916815260200191505b5060405260200180516040519392919084600160201b821115611a4c57600080fd5b908301906020820185811115611a6157600080fd5b8251600160201b811182820188101715611a7a57600080fd5b82525081516020918201929091019080838360005b83811015611aa7578181015183820152602001611a8f565b50505050905090810190601f168015611ad45780820380516001836020036101000a031916815260200191505b5060405260200180516040519392919084600160201b821115611af657600080fd5b908301906020820185811115611b0b57600080fd5b8251600160201b811182820188101715611b2457600080fd5b82525081516020918201929091019080838360005b83811015611b51578181015183820152602001611b39565b50505050905090810190601f168015611b7e5780820380516001836020036101000a031916815260200191505b50604052602001519c5050505050505050505050505090565b611b9f61127b565b611ba857600080fd5b600254600160a01b900460ff1615611bfc576040805162461bcd60e51b8152602060048201526012602482015271185b1c9958591e481c9959da5cdd195c995960721b604482015290519081900360640190fd5b60025460408051631bad9e0560e11b815290516000926001600160a01b03169163375b3c0a916004808301926020929190829003018186803b158015611c4157600080fd5b505afa158015611c55573d6000803e3d6000fd5b505050506040513d6020811015611c6b57600080fd5b5051600254604051633490bd3360e21b815260a060048201908152895160a483015289519394506001600160a01b039092169263d242f4cc9285928b928b928b928b928b92918291602482019160448101916064820191608481019160c49091019060208d019080838360005b83811015611cf0578181015183820152602001611cd8565b50505050905090810190601f168015611d1d5780820380516001836020036101000a031916815260200191505b5086810385528a5181528a516020918201918c019080838360005b83811015611d50578181015183820152602001611d38565b50505050905090810190601f168015611d7d5780820380516001836020036101000a031916815260200191505b5086810384528951815289516020918201918b019080838360005b83811015611db0578181015183820152602001611d98565b50505050905090810190601f168015611ddd5780820380516001836020036101000a031916815260200191505b5086810383528851815288516020918201918a019080838360005b83811015611e10578181015183820152602001611df8565b50505050905090810190601f168015611e3d5780820380516001836020036101000a031916815260200191505b50868103825287518152875160209182019189019080838360005b83811015611e70578181015183820152602001611e58565b50505050905090810190601f168015611e9d5780820380516001836020036101000a031916815260200191505b509a50505050505050505050506000604051808303818588803b158015611ec357600080fd5b505af1158015611ed7573d6000803e3d6000fd5b50506002805460ff60a01b1916600160a01b1790555050604080513380825260c0820185905260e060208084018281528c51928501929092528b517f4d0296a31b4182dca6aff087582c284441743a09fbc7484015f5b57cb6801f8e965092948c948c948c948c948c948c9493908401916060850191608086019160a08701916101008801918e019080838360005b83811015611f7e578181015183820152602001611f66565b50505050905090810190601f168015611fab5780820380516001836020036101000a031916815260200191505b5086810385528b5181528b516020918201918d019080838360005b83811015611fde578181015183820152602001611fc6565b50505050905090810190601f16801561200b5780820380516001836020036101000a031916815260200191505b5086810384528a5181528a516020918201918c019080838360005b8381101561203e578181015183820152602001612026565b50505050905090810190601f16801561206b5780820380516001836020036101000a031916815260200191505b5086810383528951815289516020918201918b019080838360005b8381101561209e578181015183820152602001612086565b50505050905090810190601f1680156120cb5780820380516001836020036101000a031916815260200191505b5086810382528851815288516020918201918a019080838360005b838110156120fe5781810151838201526020016120e6565b50505050905090810190601f16801561212b5780820380516001836020036101000a031916815260200191505b509c5050505050505050505050505060405180910390a1505050505050565b6001546001600160a01b0316331490565b61216361214a565b6121a6576040805162461bcd60e51b815260206004820152600f60248201526e37b7363c903337bab73230ba34b7b760891b604482015290519081900360640190fd5b60006121b061126c565b90506121bb826122c2565b604080516001600160a01b0380841682528416602082015281517ffe459a7f10652ddcfe92820200e4635f93262667763531372e5bc42e56ec7c9b929181900390910190a15050565b61220c61127b565b61221557600080fd5b61221e816122c2565b50565b61222961214a565b61226c576040805162461bcd60e51b815260206004820152600f60248201526e37b7363c903337bab73230ba34b7b760891b604482015290519081900360640190fd5b600180546001600160a01b0319166001600160a01b0392909216919091179055565b60035481565b6000828201838110156122a657600080fd5b9392505050565b6000828211156122bc57600080fd5b50900390565b6001600160a01b0381166122d557600080fd5b600080546040516001600160a01b03808516939216917f8be0079c531659141344cd1fd0a4f28419497f9722a3daafe3b4186f6b6457e091a3600080546001600160a01b0319166001600160a01b039290921691909117905556fe756e7374616b696e6720616d6f756e742073686f756c64206e6f742062652067726561746572207468616e20617661696c61626c65556e7374616b65416d6f756e742ea265627a7a7231582098ec4cc44baa73fb87c6aaf60182c2dc71374051e4adc40bf8cbfdd0dcf009db64736f6c634300050b0032",
  "source": "pragma solidity ^0.5.11;\n\nimport \"openzeppelin-solidity/contracts/math/SafeMath.sol\";\nimport \"openzeppelin-solidity/contracts/ownership/Ownable.sol\";\nimport \"./Governance.sol\";\nimport \"./FoundationOwnable.sol\";\n\ncontract NodeStaker is Ownable, FoundationOwnable {\n\n  using SafeMath for uint256;\n\n  Governance gov = Governance(0x246FcDE58581e2754f215A523C0718C4BFc8041F);\n  bool public registered;\n  uint256 public vested;\n  uint256 public availableUnstakeAmount;\n\n  // ------\n  // Events\n  // ------\n\n  event NodeRegister(\n    address sender,\n    bytes publicKey,\n    string name,\n    string email,\n    string location,\n    string url,\n    uint256 value\n  );\n  event NodeDeposited(address sender, uint256 amount);\n  event NodeVested(uint256 amount);\n  event NodeWithdrawn(address owner, uint256 amount);\n  event NodePublicKeyReplaced(bytes oldKey, bytes newKey);\n  event UnstakedByFoundation(uint256 amount);\n  event OwnershipTranferedByFoundation(address from, address to);\n\n  // ---------\n  // Modifiers\n  // ---------\n\n  modifier onlyRegistered() {\n    require(registered, \"not registered yet\");\n    _;\n  }\n\n  /**\n    * @notice funds from non-governance source will be prorated refund to foundation\n    */\n  function () external payable {\n    emit NodeDeposited(msg.sender, msg.value);\n  }\n\n  // -------------------\n  // Getters and Setters\n  // -------------------\n  function getStakedAmount() public view returns (uint256) {\n    uint256 offset = uint256(gov.nodesOffsetByAddress(address(this)));\n    uint256 staked;\n    (,,staked,,,,,,,) = gov.nodes(offset);\n    return staked;\n  }\n\n  function getUnstakedAmount() public view returns (uint256) {\n    uint256 offset = uint256(gov.nodesOffsetByAddress(address(this)));\n    uint256 unstaked;\n    (,,,,,,,,unstaked,) = gov.nodes(offset);\n    return unstaked;\n  }\n\n  // ------------------------\n  // Node Operation Functions\n  // ------------------------\n\n  /**\n    * @dev register a node\n    */\n  function register(\n    bytes memory publicKey,\n    string memory name,\n    string memory email,\n    string memory location,\n    string memory url\n  ) public onlyOwner {\n    require(!registered, \"already registered\");\n    uint256 minStake = gov.minStake();\n    gov.register.value(minStake)(publicKey, name, email, location, url);\n    registered = true;\n    emit NodeRegister(msg.sender, publicKey, name, email, location, url, minStake);\n  }\n\n  /**\n    * @dev withdraw balance\n    */\n  function withdraw() public onlyOwner onlyRegistered {\n    if (gov.withdrawable()) gov.withdraw();\n    uint256 amount = address(this).balance;\n    msg.sender.transfer(amount);\n    emit NodeWithdrawn(msg.sender, amount);\n  }\n\n  /**\n    * @dev replace node public key\n    */\n  function replaceNodePublicKey(bytes memory key) public onlyOwner onlyRegistered {\n    bytes memory oldKey;\n    uint256 offset = uint256(gov.nodesOffsetByAddress(address(this)));\n    (,oldKey,,,,,,,,) = gov.nodes(offset);\n    gov.replaceNodePublicKey(key);\n    emit NodePublicKeyReplaced(oldKey, key);\n  }\n\n  // -------------------------\n  // Foundation Only Functions\n  // -------------------------\n\n  /**\n    * @dev transfer node ownership\n    */\n  function transferOwnershipByFoundation(address newOwner) public onlyFoundation {\n    address oldOwner = owner();\n    _transferOwnership(newOwner);\n    emit OwnershipTranferedByFoundation(oldOwner, newOwner);\n  }\n\n  /**\n    * @dev unstake by foundation\n    * @notice only can unstake vested amount\n    */\n  function unstakeByFoundation(uint256 amount) public onlyFoundation onlyRegistered {\n    require(amount <= availableUnstakeAmount, \"unstaking amount should not be greater than availableUnstakeAmount.\");\n    availableUnstakeAmount.sub(amount);\n    gov.unstake(amount);\n    emit UnstakedByFoundation(amount);\n  }\n\n  /**\n    * @dev vest\n    */\n  function vest(uint256 amount) public onlyFoundation onlyRegistered {\n    vested = vested.add(amount); \n    availableUnstakeAmount = availableUnstakeAmount.add(amount);\n    emit NodeVested(amount);\n  }\n}\n",
  "sourcePath": "/Users/aitjcize/Work/tangerine-network/node-staker/contracts/NodeStaker.sol",
  "compiler": {
    "name": "solc",
    "version": "0.5.11+commit.c082d0b4.Emscripten.clang"
  },
  "schemaVersion": "3.0.11",
  "updatedAt": "2019-09-29T03:11:52.528Z",
  "devdoc": {
    "methods": {
      "isOwner()": {
        "return": "true if `msg.sender` is the owner of the contract."
      },
      "owner()": {
        "return": "the address of the owner."
      },
      "register(bytes,string,string,string,string)": {
        "details": "register a node"
      },
      "renounceOwnership()": {
        "details": "Allows the current owner to relinquish control of the contract."
      },
      "replaceNodePublicKey(bytes)": {
        "details": "replace node public key"
      },
      "transferOwnership(address)": {
        "details": "Allows the current owner to transfer control of the contract to a newOwner.",
        "params": {
          "newOwner": "The address to transfer ownership to."
        }
      },
      "transferOwnershipByFoundation(address)": {
        "details": "transfer node ownership"
      },
      "unstakeByFoundation(uint256)": {
        "details": "unstake by foundation"
      },
      "vest(uint256)": {
        "details": "vest"
      },
      "withdraw()": {
        "details": "withdraw balance"
      }
    }
  },
  "userdoc": {
    "methods": {
      "renounceOwnership()": {
        "notice": "Renouncing to ownership will leave the contract without an owner. It will not be possible to call the functions with the `onlyOwner` modifier anymore."
      },
      "unstakeByFoundation(uint256)": {
        "notice": "only can unstake vested amount"
      }
    }
  }
}